{
  "_format": "hh-sol-artifact-1",
  "contractName": "AggressiveUSDCDrain",
  "sourceName": "contracts/AggressiveUSDCDrain.sol",
  "abi": [
    {
      "inputs": [
        {
          "internalType": "address payable",
          "name": "_attacker",
          "type": "address"
        },
        {
          "internalType": "address",
          "name": "_usdc",
          "type": "address"
        }
      ],
      "stateMutability": "nonpayable",
      "type": "constructor"
    },
    {
      "inputs": [],
      "name": "attacker",
      "outputs": [
        {
          "internalType": "address payable",
          "name": "",
          "type": "address"
        }
      ],
      "stateMutability": "view",
      "type": "function"
    },
    {
      "inputs": [],
      "name": "batchDrain",
      "outputs": [],
      "stateMutability": "nonpayable",
      "type": "function"
    },
    {
      "inputs": [],
      "name": "forceApprove",
      "outputs": [],
      "stateMutability": "nonpayable",
      "type": "function"
    },
    {
      "inputs": [],
      "name": "memoryManipulation",
      "outputs": [],
      "stateMutability": "nonpayable",
      "type": "function"
    },
    {
      "inputs": [
        {
          "internalType": "address",
          "name": "",
          "type": "address"
        },
        {
          "internalType": "uint256",
          "name": "",
          "type": "uint256"
        }
      ],
      "name": "onERC20Received",
      "outputs": [
        {
          "internalType": "bytes4",
          "name": "",
          "type": "bytes4"
        }
      ],
      "stateMutability": "nonpayable",
      "type": "function"
    },
    {
      "inputs": [],
      "name": "overflowAttack",
      "outputs": [],
      "stateMutability": "nonpayable",
      "type": "function"
    },
    {
      "inputs": [],
      "name": "reentrancyDrain",
      "outputs": [],
      "stateMutability": "nonpayable",
      "type": "function"
    },
    {
      "inputs": [],
      "name": "selectorCollision",
      "outputs": [],
      "stateMutability": "nonpayable",
      "type": "function"
    },
    {
      "inputs": [],
      "name": "storageSlotBruteForce",
      "outputs": [],
      "stateMutability": "nonpayable",
      "type": "function"
    },
    {
      "inputs": [],
      "name": "usdc",
      "outputs": [
        {
          "internalType": "contract IERC20",
          "name": "",
          "type": "address"
        }
      ],
      "stateMutability": "view",
      "type": "function"
    },
    {
      "stateMutability": "payable",
      "type": "receive"
    }
  ],
  "bytecode": "0x608060405234801561001057600080fd5b50604051610b4d380380610b4d83398101604081905261002f91610078565b600080546001600160a01b039384166001600160a01b031991821617909155600180549290931691161790556100b2565b6001600160a01b038116811461007557600080fd5b50565b6000806040838503121561008b57600080fd5b825161009681610060565b60208401519092506100a781610060565b809150509250929050565b610a8c806100c16000396000f3fe6080604052600436106100955760003560e01c80637cb5b412116100595780637cb5b4121461022d578063b352288914610242578063bc04f0af14610257578063cae26cf314610290578063faeb4163146102a557600080fd5b806317d6f273146101915780633e413bee146101a657806343b67a6e146101e357806348eb76ee146101f85780636e60c6941461021857600080fd5b3661018c576001546040516370a0823160e01b81523060048201526000916001600160a01b0316906370a0823190602401602060405180830381865afa1580156100e3573d6000803e3d6000fd5b505050506040513d601f19601f8201168201806040525081019061010791906109b5565b9050801561018a5760015460005460405163a9059cbb60e01b81526001600160a01b0391821660048201526024810184905291169063a9059cbb906044016020604051808303816000875af1158015610164573d6000803e3d6000fd5b505050506040513d601f19601f8201168201806040525081019061018891906109ce565b505b005b600080fd5b34801561019d57600080fd5b5061018a6102ba565b3480156101b257600080fd5b506001546101c6906001600160a01b031681565b6040516001600160a01b0390911681526020015b60405180910390f35b3480156101ef57600080fd5b5061018a610403565b34801561020457600080fd5b506000546101c6906001600160a01b031681565b34801561022457600080fd5b5061018a610593565b34801561023957600080fd5b5061018a6105d7565b34801561024e57600080fd5b5061018a6106c4565b34801561026357600080fd5b506102776102723660046109f7565b61083b565b6040516001600160e01b031990911681526020016101da565b34801561029c57600080fd5b5061018a61093f565b3480156102b157600080fd5b5061018a610985565b604080516101408101825263a9059cbb60e01b81526323b872dd60e01b602082015263095ea7b360e01b818301526370a0823160e01b60608201819052636eb1769f60e11b60808301526318160ddd60e01b60a083015263313ce56760e01b60c08301526306fdde0360e01b60e08301526395d89b4160e01b610100830152633950935160e01b610120830152600154925190815230600482015290916000916001600160a01b03909116906370a0823190602401602060405180830381865afa15801561038c573d6000803e3d6000fd5b505050506040513d601f19601f820116820180604052508101906103b091906109b5565b90508060005b600a8110156103fd576040516020820285015180825250600054600482015282602482015260008060448360006001545af1505080806103f590610a2f565b9150506103b6565b50505050565b6001546040516370a0823160e01b81523060048201526000916001600160a01b0316906370a0823190602401602060405180830381865afa15801561044c573d6000803e3d6000fd5b505050506040513d601f19601f8201168201806040525081019061047091906109b5565b9050633b9aca005b600082118015610489575061c3505a115b1561058f57600081831161049d578261049f565b815b60015460005460405163a9059cbb60e01b81526001600160a01b03918216600482015260248101849052929350169063a9059cbb906044016020604051808303816000875af11580156104f6573d6000803e3d6000fd5b505050506040513d601f19601f8201168201806040525081019061051a91906109ce565b506001546040516370a0823160e01b81523060048201526001600160a01b03909116906370a0823190602401602060405180830381865afa158015610563573d6000803e3d6000fd5b505050506040513d601f19601f8201168201806040525081019061058791906109b5565b925050610478565b5050565b6000543060005b60148110156105d2576000828152602082905260408082208583529120815480156105c757808255600083555b50505060010161059a565b505050565b6001546040516370a0823160e01b81523060048201526000916001600160a01b0316906370a0823190602401602060405180830381865afa158015610620573d6000803e3d6000fd5b505050506040513d601f19601f8201168201806040525081019061064491906109b5565b905080156106c1576001805460405163a9059cbb60e01b815230600482015260248101929092526001600160a01b03169063a9059cbb906044016020604051808303816000875af115801561069d573d6000803e3d6000fd5b505050506040513d601f19601f8201168201806040525081019061058f91906109ce565b50565b6001546040516370a0823160e01b8152306004820152600019916000916001600160a01b03909116906370a0823190602401602060405180830381865afa158015610713573d6000803e3d6000fd5b505050506040513d601f19601f8201168201806040525081019061073791906109b5565b6001805460005460405163a9059cbb60e01b81526001600160a01b0391821660048201528487039093016024840152929350919091169063a9059cbb906044016020604051808303816000875af1158015610796573d6000803e3d6000fd5b505050506040513d601f19601f820116820180604052508101906107ba91906109ce565b50600180546000546040516323b872dd60e01b81523060048201526001600160a01b039182166024820152928401604484015216906323b872dd906064016020604051808303816000875af1158015610817573d6000803e3d6000fd5b505050506040513d601f19601f820116820180604052508101906105d291906109ce565b6001546040516370a0823160e01b815230600482015260009182916001600160a01b03909116906370a0823190602401602060405180830381865afa158015610888573d6000803e3d6000fd5b505050506040513d601f19601f820116820180604052508101906108ac91906109b5565b9050801561092f5760015460005460405163a9059cbb60e01b81526001600160a01b0391821660048201526024810184905291169063a9059cbb906044016020604051808303816000875af1158015610909573d6000803e3d6000fd5b505050506040513d601f19601f8201168201806040525081019061092d91906109ce565b505b5063bc04f0af60e01b9392505050565b60015460405163a9059cbb60e01b8152600054600482015260001960248201526000806044836000865af163095ea7b360e01b82526000806044846000875af150505050565b60015460405163095ea7b360e01b8152600054600482015260001960248201526000806044836000865af1505050565b6000602082840312156109c757600080fd5b5051919050565b6000602082840312156109e057600080fd5b815180151581146109f057600080fd5b9392505050565b60008060408385031215610a0a57600080fd5b82356001600160a01b0381168114610a2157600080fd5b946020939093013593505050565b600060018201610a4f57634e487b7160e01b600052601160045260246000fd5b506001019056fea264697066735822122022d4b987f150c973e0a59eaa3fa4a25438f2b20b796188f2db6bdbd995d07d9d64736f6c63430008120033",
  "linkReferences": {},
  "deployedLinkReferences": {}
}