{
  "_format": "hh-sol-artifact-1",
  "contractName": "DelegatecallPayload",
  "sourceName": "contracts/DelegatecallPayload.sol",
  "abi": [
    {
      "inputs": [
        {
          "internalType": "address",
          "name": "newOwner",
          "type": "address"
        }
      ],
      "name": "changeOwner",
      "outputs": [],
      "stateMutability": "nonpayable",
      "type": "function"
    },
    {
      "inputs": [
        {
          "internalType": "address payable",
          "name": "recipient",
          "type": "address"
        }
      ],
      "name": "destroyVault",
      "outputs": [],
      "stateMutability": "nonpayable",
      "type": "function"
    },
    {
      "inputs": [
        {
          "internalType": "address payable",
          "name": "recipient",
          "type": "address"
        }
      ],
      "name": "drain",
      "outputs": [],
      "stateMutability": "nonpayable",
      "type": "function"
    },
    {
      "inputs": [],
      "name": "emergencyDrain",
      "outputs": [],
      "stateMutability": "nonpayable",
      "type": "function"
    },
    {
      "inputs": [
        {
          "internalType": "uint256",
          "name": "slot",
          "type": "uint256"
        },
        {
          "internalType": "uint256",
          "name": "value",
          "type": "uint256"
        }
      ],
      "name": "overwriteStorage",
      "outputs": [],
      "stateMutability": "nonpayable",
      "type": "function"
    }
  ],
  "bytecode": "0x608060405234801561001057600080fd5b5061028a806100206000396000f3fe608060405234801561001057600080fd5b50600436106100575760003560e01c806307b7e9ff1461005c5780632caac08b14610070578063a6f9dae114610078578063ece531321461008b578063fab2343f1461009e575b600080fd5b61006e61006a3660046101f9565b9055565b005b61006e6100b1565b61006e610086366004610230565b600055565b61006e610099366004610230565b61014c565b61006e6100ac366004610230565b6101ed565b47801561014957604051600090329083908381818185875af1925050503d80600081146100fa576040519150601f19603f3d011682016040523d82523d6000602084013e6100ff565b606091505b50509050806101475760405162461bcd60e51b815260206004820152600f60248201526e151c985b9cd9995c8819985a5b1959608a1b60448201526064015b60405180910390fd5b505b50565b478015610147576000826001600160a01b03168260405160006040518083038185875af1925050503d80600081146101a0576040519150601f19603f3d011682016040523d82523d6000602084013e6101a5565b606091505b50509050806101e85760405162461bcd60e51b815260206004820152600f60248201526e151c985b9cd9995c8819985a5b1959608a1b604482015260640161013e565b505050565b806001600160a01b0316ff5b6000806040838503121561020c57600080fd5b50508035926020909101359150565b6001600160a01b038116811461014957600080fd5b60006020828403121561024257600080fd5b813561024d8161021b565b939250505056fea2646970667358221220da42c8f57b36c45cd6b133ad79bb838bb92956a4c0b4911e3e31a6681ea0d7d164736f6c63430008120033",
  "linkReferences": {},
  "deployedLinkReferences": {}
}