{
  "_format": "hh-sol-artifact-1",
  "contractName": "StorageCollision",
  "sourceName": "contracts/StorageCollision.sol",
  "abi": [
    {
      "inputs": [],
      "name": "clearInitialized",
      "outputs": [],
      "stateMutability": "nonpayable",
      "type": "function"
    },
    {
      "inputs": [
        {
          "internalType": "address",
          "name": "newAdmin",
          "type": "address"
        }
      ],
      "name": "hijackAdmin",
      "outputs": [],
      "stateMutability": "nonpayable",
      "type": "function"
    },
    {
      "inputs": [
        {
          "internalType": "address",
          "name": "newValue",
          "type": "address"
        }
      ],
      "name": "overwriteSlot0",
      "outputs": [],
      "stateMutability": "nonpayable",
      "type": "function"
    },
    {
      "inputs": [
        {
          "internalType": "uint256",
          "name": "startSlot",
          "type": "uint256"
        },
        {
          "internalType": "uint256[]",
          "name": "values",
          "type": "uint256[]"
        }
      ],
      "name": "overwriteSlots",
      "outputs": [],
      "stateMutability": "nonpayable",
      "type": "function"
    }
  ],
  "bytecode": "0x608060405234801561001057600080fd5b5061020f806100206000396000f3fe608060405234801561001057600080fd5b506004361061004c5760003560e01c806324057a0914610051578063298f9608146100665780632d1688d614610083578063f987458414610096575b600080fd5b61006461005f3660046100ed565b6100a7565b005b61006461007436600461016c565b80600055806001558060025550565b61006461009136600461016c565b600055565b610064600060001981905560011955565b60005b818110156100e75760008383838181106100c6576100c661019c565b602002919091013586840155508190506100df816101b2565b9150506100aa565b50505050565b60008060006040848603121561010257600080fd5b83359250602084013567ffffffffffffffff8082111561012157600080fd5b818601915086601f83011261013557600080fd5b81358181111561014457600080fd5b8760208260051b850101111561015957600080fd5b6020830194508093505050509250925092565b60006020828403121561017e57600080fd5b81356001600160a01b038116811461019557600080fd5b9392505050565b634e487b7160e01b600052603260045260246000fd5b6000600182016101d257634e487b7160e01b600052601160045260246000fd5b506001019056fea2646970667358221220a8b234d82d168659d0f555f79cd3d61d1e014d38f359695c8a210832371e35e964736f6c63430008120033",
  "linkReferences": {},
  "deployedLinkReferences": {}
}