{"contracts/ForceSend.sol":{"ForceSend":{"abi":[{"inputs":[],"stateMutability":"payable","type":"constructor"},{"inputs":[{"internalType":"address","name":"target","type":"address"}],"name":"go","outputs":[],"stateMutability":"nonpayable","type":"function"}],"evm":{"bytecode":{"linkReferences":{},"object":"608060405260ae806100126000396000f3fe6080604052348015600f57600080fd5b506004361060285760003560e01c80633434e74914602d575b600080fd5b603c6038366004604a565b603e565b005b806001600160a01b0316ff5b600060208284031215605b57600080fd5b81356001600160a01b0381168114607157600080fd5b939250505056fea264697066735822122014272380fa02915fe27fb01f60f9b3d5598e62890564fd4e8268eb6c69429e4564736f6c63430008120033","opcodes":"PUSH1 0x80 PUSH1 0x40 MSTORE PUSH1 0xAE DUP1 PUSH2 0x12 PUSH1 0x0 CODECOPY PUSH1 0x0 RETURN INVALID PUSH1 0x80 PUSH1 0x40 MSTORE CALLVALUE DUP1 ISZERO PUSH1 0xF JUMPI PUSH1 0x0 DUP1 REVERT JUMPDEST POP PUSH1 0x4 CALLDATASIZE LT PUSH1 0x28 JUMPI PUSH1 0x0 CALLDATALOAD PUSH1 0xE0 SHR DUP1 PUSH4 0x3434E749 EQ PUSH1 0x2D JUMPI JUMPDEST PUSH1 0x0 DUP1 REVERT JUMPDEST PUSH1 0x3C PUSH1 0x38 CALLDATASIZE PUSH1 0x4 PUSH1 0x4A JUMP JUMPDEST PUSH1 0x3E JUMP JUMPDEST STOP JUMPDEST DUP1 PUSH1 0x1 PUSH1 0x1 PUSH1 0xA0 SHL SUB AND SELFDESTRUCT JUMPDEST PUSH1 0x0 PUSH1 0x20 DUP3 DUP5 SUB SLT ISZERO PUSH1 0x5B JUMPI PUSH1 0x0 DUP1 REVERT JUMPDEST DUP2 CALLDATALOAD PUSH1 0x1 PUSH1 0x1 PUSH1 0xA0 SHL SUB DUP2 AND DUP2 EQ PUSH1 0x71 JUMPI PUSH1 0x0 DUP1 REVERT JUMPDEST SWAP4 SWAP3 POP POP POP JUMP INVALID LOG2 PUSH5 0x6970667358 0x22 SLT KECCAK256 EQ 0x27 0x23 DUP1 STATICCALL MUL SWAP2 0x5F 0xE2 PUSH32 0xB01F60F9B3D5598E62890564FD4E8268EB6C69429E4564736F6C634300081200 CALLER "},"methodIdentifiers":{"go(address)":"3434e749"}}}}}