{"contracts/StorageCollision.sol":{"StorageCollision":{"abi":[{"inputs":[],"name":"clearInitialized","outputs":[],"stateMutability":"nonpayable","type":"function"},{"inputs":[{"internalType":"address","name":"newAdmin","type":"address"}],"name":"hijackAdmin","outputs":[],"stateMutability":"nonpayable","type":"function"},{"inputs":[{"internalType":"address","name":"newValue","type":"address"}],"name":"overwriteSlot0","outputs":[],"stateMutability":"nonpayable","type":"function"},{"inputs":[{"internalType":"uint256","name":"startSlot","type":"uint256"},{"internalType":"uint256[]","name":"values","type":"uint256[]"}],"name":"overwriteSlots","outputs":[],"stateMutability":"nonpayable","type":"function"}],"evm":{"bytecode":{"linkReferences":{},"object":"608060405234801561001057600080fd5b5061020f806100206000396000f3fe608060405234801561001057600080fd5b506004361061004c5760003560e01c806324057a0914610051578063298f9608146100665780632d1688d614610083578063f987458414610096575b600080fd5b61006461005f3660046100ed565b6100a7565b005b61006461007436600461016c565b80600055806001558060025550565b61006461009136600461016c565b600055565b610064600060001981905560011955565b60005b818110156100e75760008383838181106100c6576100c661019c565b602002919091013586840155508190506100df816101b2565b9150506100aa565b50505050565b60008060006040848603121561010257600080fd5b83359250602084013567ffffffffffffffff8082111561012157600080fd5b818601915086601f83011261013557600080fd5b81358181111561014457600080fd5b8760208260051b850101111561015957600080fd5b6020830194508093505050509250925092565b60006020828403121561017e57600080fd5b81356001600160a01b038116811461019557600080fd5b9392505050565b634e487b7160e01b600052603260045260246000fd5b6000600182016101d257634e487b7160e01b600052601160045260246000fd5b506001019056fea2646970667358221220a8b234d82d168659d0f555f79cd3d61d1e014d38f359695c8a210832371e35e964736f6c63430008120033","opcodes":"PUSH1 0x80 PUSH1 0x40 MSTORE CALLVALUE DUP1 ISZERO PUSH2 0x10 JUMPI PUSH1 0x0 DUP1 REVERT JUMPDEST POP PUSH2 0x20F DUP1 PUSH2 0x20 PUSH1 0x0 CODECOPY PUSH1 0x0 RETURN INVALID PUSH1 0x80 PUSH1 0x40 MSTORE CALLVALUE DUP1 ISZERO PUSH2 0x10 JUMPI PUSH1 0x0 DUP1 REVERT JUMPDEST POP PUSH1 0x4 CALLDATASIZE LT PUSH2 0x4C JUMPI PUSH1 0x0 CALLDATALOAD PUSH1 0xE0 SHR DUP1 PUSH4 0x24057A09 EQ PUSH2 0x51 JUMPI DUP1 PUSH4 0x298F9608 EQ PUSH2 0x66 JUMPI DUP1 PUSH4 0x2D1688D6 EQ PUSH2 0x83 JUMPI DUP1 PUSH4 0xF9874584 EQ PUSH2 0x96 JUMPI JUMPDEST PUSH1 0x0 DUP1 REVERT JUMPDEST PUSH2 0x64 PUSH2 0x5F CALLDATASIZE PUSH1 0x4 PUSH2 0xED JUMP JUMPDEST PUSH2 0xA7 JUMP JUMPDEST STOP JUMPDEST PUSH2 0x64 PUSH2 0x74 CALLDATASIZE PUSH1 0x4 PUSH2 0x16C JUMP JUMPDEST DUP1 PUSH1 0x0 SSTORE DUP1 PUSH1 0x1 SSTORE DUP1 PUSH1 0x2 SSTORE POP JUMP JUMPDEST PUSH2 0x64 PUSH2 0x91 CALLDATASIZE PUSH1 0x4 PUSH2 0x16C JUMP JUMPDEST PUSH1 0x0 SSTORE JUMP JUMPDEST PUSH2 0x64 PUSH1 0x0 PUSH1 0x0 NOT DUP2 SWAP1 SSTORE PUSH1 0x1 NOT SSTORE JUMP JUMPDEST PUSH1 0x0 JUMPDEST DUP2 DUP2 LT ISZERO PUSH2 0xE7 JUMPI PUSH1 0x0 DUP4 DUP4 DUP4 DUP2 DUP2 LT PUSH2 0xC6 JUMPI PUSH2 0xC6 PUSH2 0x19C JUMP JUMPDEST PUSH1 0x20 MUL SWAP2 SWAP1 SWAP2 ADD CALLDATALOAD DUP7 DUP5 ADD SSTORE POP DUP2 SWAP1 POP PUSH2 0xDF DUP2 PUSH2 0x1B2 JUMP JUMPDEST SWAP2 POP POP PUSH2 0xAA JUMP JUMPDEST POP POP POP POP JUMP JUMPDEST PUSH1 0x0 DUP1 PUSH1 0x0 PUSH1 0x40 DUP5 DUP7 SUB SLT ISZERO PUSH2 0x102 JUMPI PUSH1 0x0 DUP1 REVERT JUMPDEST DUP4 CALLDATALOAD SWAP3 POP PUSH1 0x20 DUP5 ADD CALLDATALOAD PUSH8 0xFFFFFFFFFFFFFFFF DUP1 DUP3 GT ISZERO PUSH2 0x121 JUMPI PUSH1 0x0 DUP1 REVERT JUMPDEST DUP2 DUP7 ADD SWAP2 POP DUP7 PUSH1 0x1F DUP4 ADD SLT PUSH2 0x135 JUMPI PUSH1 0x0 DUP1 REVERT JUMPDEST DUP2 CALLDATALOAD DUP2 DUP2 GT ISZERO PUSH2 0x144 JUMPI PUSH1 0x0 DUP1 REVERT JUMPDEST DUP8 PUSH1 0x20 DUP3 PUSH1 0x5 SHL DUP6 ADD ADD GT ISZERO PUSH2 0x159 JUMPI PUSH1 0x0 DUP1 REVERT JUMPDEST PUSH1 0x20 DUP4 ADD SWAP5 POP DUP1 SWAP4 POP POP POP POP SWAP3 POP SWAP3 POP SWAP3 JUMP JUMPDEST PUSH1 0x0 PUSH1 0x20 DUP3 DUP5 SUB SLT ISZERO PUSH2 0x17E JUMPI PUSH1 0x0 DUP1 REVERT JUMPDEST DUP2 CALLDATALOAD PUSH1 0x1 PUSH1 0x1 PUSH1 0xA0 SHL SUB DUP2 AND DUP2 EQ PUSH2 0x195 JUMPI PUSH1 0x0 DUP1 REVERT JUMPDEST SWAP4 SWAP3 POP POP POP JUMP JUMPDEST PUSH4 0x4E487B71 PUSH1 0xE0 SHL PUSH1 0x0 MSTORE PUSH1 0x32 PUSH1 0x4 MSTORE PUSH1 0x24 PUSH1 0x0 REVERT JUMPDEST PUSH1 0x0 PUSH1 0x1 DUP3 ADD PUSH2 0x1D2 JUMPI PUSH4 0x4E487B71 PUSH1 0xE0 SHL PUSH1 0x0 MSTORE PUSH1 0x11 PUSH1 0x4 MSTORE PUSH1 0x24 PUSH1 0x0 REVERT JUMPDEST POP PUSH1 0x1 ADD SWAP1 JUMP INVALID LOG2 PUSH5 0x6970667358 0x22 SLT KECCAK256 0xA8 0xB2 CALLVALUE 0xD8 0x2D AND DUP7 MSIZE 0xD0 CREATE2 SSTORE 0xF7 SWAP13 0xD3 0xD6 SAR 0x1E ADD 0x4D CODESIZE RETURN MSIZE PUSH10 0x5C8A210832371E35E964 PUSH20 0x6F6C634300081200330000000000000000000000 "},"methodIdentifiers":{"clearInitialized()":"f9874584","hijackAdmin(address)":"298f9608","overwriteSlot0(address)":"2d1688d6","overwriteSlots(uint256,uint256[])":"24057a09"}}}}}