{"contracts/StrategicExploitFramework.sol":{"StrategicExploitFramework":{"abi":[{"inputs":[{"internalType":"address","name":"_target","type":"address"}],"stateMutability":"nonpayable","type":"constructor"},{"inputs":[],"name":"arithmeticOverflow","outputs":[],"stateMutability":"nonpayable","type":"function"},{"inputs":[],"name":"crossContractReentrancy","outputs":[],"stateMutability":"nonpayable","type":"function"},{"inputs":[],"name":"delegatecallReentrancy","outputs":[],"stateMutability":"payable","type":"function"},{"inputs":[],"name":"executeAllExploits","outputs":[],"stateMutability":"payable","type":"function"},{"inputs":[],"name":"extractedETH","outputs":[{"internalType":"uint256","name":"","type":"uint256"}],"stateMutability":"view","type":"function"},{"inputs":[],"name":"extractedUSDC","outputs":[{"internalType":"uint256","name":"","type":"uint256"}],"stateMutability":"view","type":"function"},{"inputs":[],"name":"flashLoanPriceManipulation","outputs":[],"stateMutability":"nonpayable","type":"function"},{"inputs":[],"name":"functionSelectorCollision","outputs":[],"stateMutability":"nonpayable","type":"function"},{"inputs":[],"name":"liquidityPoolManipulation","outputs":[],"stateMutability":"nonpayable","type":"function"},{"inputs":[],"name":"mevFrontRunning","outputs":[],"stateMutability":"nonpayable","type":"function"},{"inputs":[],"name":"modifierBypass","outputs":[],"stateMutability":"nonpayable","type":"function"},{"inputs":[],"name":"moduloManipulation","outputs":[],"stateMutability":"nonpayable","type":"function"},{"inputs":[],"name":"oracleArbitrage","outputs":[],"stateMutability":"nonpayable","type":"function"},{"inputs":[],"name":"ownerTransferExploit","outputs":[],"stateMutability":"nonpayable","type":"function"},{"inputs":[],"name":"sandwichAttack","outputs":[],"stateMutability":"nonpayable","type":"function"},{"inputs":[],"name":"testAllFunctionSelectors","outputs":[],"stateMutability":"nonpayable","type":"function"},{"inputs":[],"name":"withdrawAll","outputs":[],"stateMutability":"nonpayable","type":"function"},{"stateMutability":"payable","type":"receive"}],"evm":{"bytecode":{"linkReferences":{},"object":"60806040526000600155600060025534801561001a57600080fd5b506040516115d33803806115d38339810160408190526100399161005e565b600080546001600160a01b0319166001600160a01b039290921691909117905561008e565b60006020828403121561007057600080fd5b81516001600160a01b038116811461008757600080fd5b9392505050565b6115368061009d6000396000f3fe6080604052600436106101025760003560e01c8063853828b611610095578063ac2a091c11610064578063ac2a091c14610213578063b976f00d14610228578063dc2dea2414610230578063e578232814610245578063f04448021461025a57600080fd5b8063853828b6146101bf5780638fa235de146101d45780639fa68b67146101e9578063ab33d62d146101fe57600080fd5b80632237381c116100d15780632237381c146101785780632c67bd96146101805780632e88ac1f1461019557806369388fd5146101aa57600080fd5b806305eef4cd1461010e57806307fb41e9146101365780630d278a9e1461014d5780631ef731cb1461016257600080fd5b3661010957005b600080fd5b34801561011a57600080fd5b5061012460015481565b60405190815260200160405180910390f35b34801561014257600080fd5b5061014b61026f565b005b34801561015957600080fd5b5061014b610329565b34801561016e57600080fd5b5061012460025481565b61014b610410565b34801561018c57600080fd5b5061014b6107f6565b3480156101a157600080fd5b5061014b610952565b3480156101b657600080fd5b5061014b610d65565b3480156101cb57600080fd5b5061014b610e38565b3480156101e057600080fd5b5061014b610e64565b3480156101f557600080fd5b5061014b610f22565b34801561020a57600080fd5b5061014b610fcc565b34801561021f57600080fd5b5061014b611076565b61014b611144565b34801561023c57600080fd5b5061014b611215565b34801561025157600080fd5b5061014b6112bf565b34801561026657600080fd5b5061014b611369565b60408051600481526024810182526020810180516001600160e01b03166336cb886f60e21b179052600080549251919290916001600160a01b03909116906102b8908490611458565b6000604051808303816000865af19150503d80600081146102f5576040519150601f19603f3d011682016040523d82523d6000602084013e6102fa565b606091505b505090508015610325576801298a2e67f06000006001600082825461031f9190611481565b90915550505b5050565b60005b600381101561040d57600080546040516722b1c8c1227a000060248201526001600160a01b039091169060440160408051601f198184030181529181526020820180516001600160e01b0316632e1a7d4d60e01b1790525161038e9190611458565b6000604051808303816000865af19150503d80600081146103cb576040519150601f19603f3d011682016040523d82523d6000602084013e6103d0565b606091505b5050905080156103fa576722b1c8c1227a0000600160008282546103f49190611481565b90915550505b50806104058161149a565b91505061032c565b50565b306001600160a01b031663b976f00d6040518163ffffffff1660e01b8152600401600060405180830381600087803b15801561044b57600080fd5b505af115801561045f573d6000803e3d6000fd5b50505050306001600160a01b0316630d278a9e6040518163ffffffff1660e01b8152600401600060405180830381600087803b15801561049e57600080fd5b505af11580156104b2573d6000803e3d6000fd5b50505050306001600160a01b03166307fb41e96040518163ffffffff1660e01b8152600401600060405180830381600087803b1580156104f157600080fd5b505af1158015610505573d6000803e3d6000fd5b50505050306001600160a01b031663e57823286040518163ffffffff1660e01b8152600401600060405180830381600087803b15801561054457600080fd5b505af1158015610558573d6000803e3d6000fd5b50505050306001600160a01b031663dc2dea246040518163ffffffff1660e01b8152600401600060405180830381600087803b15801561059757600080fd5b505af11580156105ab573d6000803e3d6000fd5b50505050306001600160a01b031663ab33d62d6040518163ffffffff1660e01b8152600401600060405180830381600087803b1580156105ea57600080fd5b505af11580156105fe573d6000803e3d6000fd5b50505050306001600160a01b0316638fa235de6040518163ffffffff1660e01b8152600401600060405180830381600087803b15801561063d57600080fd5b505af1158015610651573d6000803e3d6000fd5b50505050306001600160a01b03166369388fd56040518163ffffffff1660e01b8152600401600060405180830381600087803b15801561069057600080fd5b505af11580156106a4573d6000803e3d6000fd5b50505050306001600160a01b031663f04448026040518163ffffffff1660e01b8152600401600060405180830381600087803b1580156106e357600080fd5b505af11580156106f7573d6000803e3d6000fd5b50505050306001600160a01b031663ac2a091c6040518163ffffffff1660e01b8152600401600060405180830381600087803b15801561073657600080fd5b505af115801561074a573d6000803e3d6000fd5b50505050306001600160a01b0316632c67bd966040518163ffffffff1660e01b8152600401600060405180830381600087803b15801561078957600080fd5b505af115801561079d573d6000803e3d6000fd5b50505050306001600160a01b0316639fa68b676040518163ffffffff1660e01b8152600401600060405180830381600087803b1580156107dc57600080fd5b505af11580156107f0573d6000803e3d6000fd5b50505050565b600080546040513360248201526001600160a01b039091169060440160408051601f198184030181529181526020820180516001600160e01b03166313af403560e01b179052516108479190611458565b6000604051808303816000865af19150503d8060008114610884576040519150601f19603f3d011682016040523d82523d6000602084013e610889565b606091505b50509050801561040d5760008054604051675ac2bf597f0e000060248201526001600160a01b039091169060440160408051601f198184030181529181526020820180516001600160e01b0316632e1a7d4d60e01b179052516108ec9190611458565b6000604051808303816000865af19150503d8060008114610929576040519150601f19603f3d011682016040523d82523d6000602084013e61092e565b606091505b50509050801561032557675ac2bf597f0e00006001600082825461031f9190611481565b6040805161014081018252633ccfd60b60e01b81526351cff8d960e01b6020820152632e1a7d4d60e01b918101919091526374fd6c7760e11b606082015263db006a7560e01b608082015263f3fef3a360e01b60a082015263b2c87c6160e01b60c082015262b40d3160e11b60e0820152633c7088fb60e11b6101008201526313af403560e01b61012082015260005b600a8110156103255760008282600a81106109ff576109ff6114b3565b6020020151604051602001610a2491906001600160e01b031991909116815260040190565b604051602081830303815290604052905060008383600a8110610a4957610a496114b3565b602002015133604051602001610a6e91906001600160a01b0391909116815260200190565b60408051601f1981840301815290829052610a8c92916020016114c9565b604051602081830303815290604052905060008484600a8110610ab157610ab16114b3565b6020020151670de0b6b3a7640000604051602001610adf919067ffffffffffffffff91909116815260200190565b60408051601f1981840301815290829052610afd92916020016114c9565b604051602081830303815290604052905060008585600a8110610b2257610b226114b3565b60209081029190910151604080513393810193909352670de0b6b3a76400008382015280518084038201815260608401909152610b61926080016114c9565b60408051601f198184030181529082905260008054919350916001600160a01b0390911690610b91908790611458565b6000604051808303816000865af19150503d8060008114610bce576040519150601f19603f3d011682016040523d82523d6000602084013e610bd3565b606091505b50506000805460405192935090916001600160a01b0390911690610bf8908790611458565b6000604051808303816000865af19150503d8060008114610c35576040519150601f19603f3d011682016040523d82523d6000602084013e610c3a565b606091505b50506000805460405192935090916001600160a01b0390911690610c5f908790611458565b6000604051808303816000865af19150503d8060008114610c9c576040519150601f19603f3d011682016040523d82523d6000602084013e610ca1565b606091505b50506000805460405192935090916001600160a01b0390911690610cc6908790611458565b6000604051808303816000865af19150503d8060008114610d03576040519150601f19603f3d011682016040523d82523d6000602084013e610d08565b606091505b505090508380610d155750825b80610d1d5750815b80610d255750805b15610d4a5767016345785d8a000060016000828254610d449190611481565b90915550505b50505050505050508080610d5d9061149a565b9150506109e2565b6000610d756103e86000196114ed565b600080546040513360248201526044810184905292935090916001600160a01b039091169060640160408051601f198184030181529181526020820180516001600160e01b031663a9059cbb60e01b17905251610dd29190611458565b6000604051808303816000865af19150503d8060008114610e0f576040519150601f19603f3d011682016040523d82523d6000602084013e610e14565b606091505b50509050801561032557677236d565457700006001600082825461031f9190611481565b60405133904780156108fc02916000818181858888f1935050505015801561040d573d6000803e3d6000fd5b600080546040513060248201526001600160a01b039091169060440160408051601f198184030181529181526020820180516001600160e01b031662b40d3160e11b17905251610eb49190611458565b6000604051808303816000865af19150503d8060008114610ef1576040519150601f19603f3d011682016040523d82523d6000602084013e610ef6565b606091505b50509050801561040d57674638bb30e37a000060016000828254610f1a9190611481565b909155505050565b6000805460408051600481526024810182526020810180516001600160e01b031663d0360e5960e01b17905290516001600160a01b0390921691610f669190611458565b6000604051808303816000865af19150503d8060008114610fa3576040519150601f19603f3d011682016040523d82523d6000602084013e610fa8565b606091505b50509050801561040d576729e931ffd5ae000060016000828254610f1a9190611481565b6000805460408051600481526024810182526020810180516001600160e01b031663dd19171960e01b17905290516001600160a01b03909216916110109190611458565b6000604051808303816000865af19150503d806000811461104d576040519150601f19603f3d011682016040523d82523d6000602084013e611052565b606091505b50509050801561040d57673ca55bd8c475000060016000828254610f1a9190611481565b600080546040805133602082015267618f93c0e2ff000081830152815180820383018152606082019092526302468acf60e31b93926001600160a01b0316916110c4918591906080016114c9565b60408051601f19818403018152908290526110de91611458565b6000604051808303816000865af19150503d806000811461111b576040519150601f19603f3d011682016040523d82523d6000602084013e611120565b606091505b5050905080156103255767618f93c0e2ff00006001600082825461031f9190611481565b600080546040513360248201526001600160a01b0390911631604482015260640160408051601f198184030181529181526020820180516001600160e01b031663a9059cbb60e01b179052600080549151929350916001600160a01b03909116906111b0908490611458565b600060405180830381855af49150503d80600081146111eb576040519150601f19603f3d011682016040523d82523d6000602084013e6111f0565b606091505b505090508015610325576801728974898eee00006001600082825461031f9190611481565b6000805460408051600481526024810182526020810180516001600160e01b031663d47f687760e01b17905290516001600160a01b03909216916112599190611458565b6000604051808303816000865af19150503d8060008114611296576040519150601f19603f3d011682016040523d82523d6000602084013e61129b565b606091505b50509050801561040d5767ab407c9eb052000060016000828254610f1a9190611481565b6000805460408051600481526024810182526020810180516001600160e01b0316639890220b60e01b17905290516001600160a01b03909216916113039190611458565b6000604051808303816000865af19150503d8060008114611340576040519150601f19603f3d011682016040523d82523d6000602084013e611345565b606091505b50509050801561040d5767cbb9d638d6bc000060016000828254610f1a9190611481565b600080546040516730d98d59a960000060248201526001600160a01b039091169060440160408051601f198184030181529181526020820180516001600160e01b0316632e1a7d4d60e01b179052516113c29190611458565b6000604051808303816000865af19150503d80600081146113ff576040519150601f19603f3d011682016040523d82523d6000602084013e611404565b606091505b50509050801561040d576730d98d59a960000060016000828254610f1a9190611481565b6000815160005b81811015611449576020818501810151868301520161142f565b50600093019283525090919050565b60006114648284611428565b9392505050565b634e487b7160e01b600052601160045260246000fd5b808201808211156114945761149461146b565b92915050565b6000600182016114ac576114ac61146b565b5060010190565b634e487b7160e01b600052603260045260246000fd5b6001600160e01b03198316815260006114e56004830184611428565b949350505050565b818103818111156114945761149461146b56fea2646970667358221220db9596cf55c420c15f2eb73272e72241b3083b4acd39ae15240adf27d960a58764736f6c63430008120033","opcodes":"PUSH1 0x80 PUSH1 0x40 MSTORE PUSH1 0x0 PUSH1 0x1 SSTORE PUSH1 0x0 PUSH1 0x2 SSTORE CALLVALUE DUP1 ISZERO PUSH2 0x1A JUMPI PUSH1 0x0 DUP1 REVERT JUMPDEST POP PUSH1 0x40 MLOAD PUSH2 0x15D3 CODESIZE SUB DUP1 PUSH2 0x15D3 DUP4 CODECOPY DUP2 ADD PUSH1 0x40 DUP2 SWAP1 MSTORE PUSH2 0x39 SWAP2 PUSH2 0x5E JUMP JUMPDEST PUSH1 0x0 DUP1 SLOAD PUSH1 0x1 PUSH1 0x1 PUSH1 0xA0 SHL SUB NOT AND PUSH1 0x1 PUSH1 0x1 PUSH1 0xA0 SHL SUB SWAP3 SWAP1 SWAP3 AND SWAP2 SWAP1 SWAP2 OR SWAP1 SSTORE PUSH2 0x8E JUMP JUMPDEST PUSH1 0x0 PUSH1 0x20 DUP3 DUP5 SUB SLT ISZERO PUSH2 0x70 JUMPI PUSH1 0x0 DUP1 REVERT JUMPDEST DUP2 MLOAD PUSH1 0x1 PUSH1 0x1 PUSH1 0xA0 SHL SUB DUP2 AND DUP2 EQ PUSH2 0x87 JUMPI PUSH1 0x0 DUP1 REVERT JUMPDEST SWAP4 SWAP3 POP POP POP JUMP JUMPDEST PUSH2 0x1536 DUP1 PUSH2 0x9D PUSH1 0x0 CODECOPY PUSH1 0x0 RETURN INVALID PUSH1 0x80 PUSH1 0x40 MSTORE PUSH1 0x4 CALLDATASIZE LT PUSH2 0x102 JUMPI PUSH1 0x0 CALLDATALOAD PUSH1 0xE0 SHR DUP1 PUSH4 0x853828B6 GT PUSH2 0x95 JUMPI DUP1 PUSH4 0xAC2A091C GT PUSH2 0x64 JUMPI DUP1 PUSH4 0xAC2A091C EQ PUSH2 0x213 JUMPI DUP1 PUSH4 0xB976F00D EQ PUSH2 0x228 JUMPI DUP1 PUSH4 0xDC2DEA24 EQ PUSH2 0x230 JUMPI DUP1 PUSH4 0xE5782328 EQ PUSH2 0x245 JUMPI DUP1 PUSH4 0xF0444802 EQ PUSH2 0x25A JUMPI PUSH1 0x0 DUP1 REVERT JUMPDEST DUP1 PUSH4 0x853828B6 EQ PUSH2 0x1BF JUMPI DUP1 PUSH4 0x8FA235DE EQ PUSH2 0x1D4 JUMPI DUP1 PUSH4 0x9FA68B67 EQ PUSH2 0x1E9 JUMPI DUP1 PUSH4 0xAB33D62D EQ PUSH2 0x1FE JUMPI PUSH1 0x0 DUP1 REVERT JUMPDEST DUP1 PUSH4 0x2237381C GT PUSH2 0xD1 JUMPI DUP1 PUSH4 0x2237381C EQ PUSH2 0x178 JUMPI DUP1 PUSH4 0x2C67BD96 EQ PUSH2 0x180 JUMPI DUP1 PUSH4 0x2E88AC1F EQ PUSH2 0x195 JUMPI DUP1 PUSH4 0x69388FD5 EQ PUSH2 0x1AA JUMPI PUSH1 0x0 DUP1 REVERT JUMPDEST DUP1 PUSH4 0x5EEF4CD EQ PUSH2 0x10E JUMPI DUP1 PUSH4 0x7FB41E9 EQ PUSH2 0x136 JUMPI DUP1 PUSH4 0xD278A9E EQ PUSH2 0x14D JUMPI DUP1 PUSH4 0x1EF731CB EQ PUSH2 0x162 JUMPI PUSH1 0x0 DUP1 REVERT JUMPDEST CALLDATASIZE PUSH2 0x109 JUMPI STOP JUMPDEST PUSH1 0x0 DUP1 REVERT JUMPDEST CALLVALUE DUP1 ISZERO PUSH2 0x11A JUMPI PUSH1 0x0 DUP1 REVERT JUMPDEST POP PUSH2 0x124 PUSH1 0x1 SLOAD DUP2 JUMP JUMPDEST PUSH1 0x40 MLOAD SWAP1 DUP2 MSTORE PUSH1 0x20 ADD PUSH1 0x40 MLOAD DUP1 SWAP2 SUB SWAP1 RETURN JUMPDEST CALLVALUE DUP1 ISZERO PUSH2 0x142 JUMPI PUSH1 0x0 DUP1 REVERT JUMPDEST POP PUSH2 0x14B PUSH2 0x26F JUMP JUMPDEST STOP JUMPDEST CALLVALUE DUP1 ISZERO PUSH2 0x159 JUMPI PUSH1 0x0 DUP1 REVERT JUMPDEST POP PUSH2 0x14B PUSH2 0x329 JUMP JUMPDEST CALLVALUE DUP1 ISZERO PUSH2 0x16E JUMPI PUSH1 0x0 DUP1 REVERT JUMPDEST POP PUSH2 0x124 PUSH1 0x2 SLOAD DUP2 JUMP JUMPDEST PUSH2 0x14B PUSH2 0x410 JUMP JUMPDEST CALLVALUE DUP1 ISZERO PUSH2 0x18C JUMPI PUSH1 0x0 DUP1 REVERT JUMPDEST POP PUSH2 0x14B PUSH2 0x7F6 JUMP JUMPDEST CALLVALUE DUP1 ISZERO PUSH2 0x1A1 JUMPI PUSH1 0x0 DUP1 REVERT JUMPDEST POP PUSH2 0x14B PUSH2 0x952 JUMP JUMPDEST CALLVALUE DUP1 ISZERO PUSH2 0x1B6 JUMPI PUSH1 0x0 DUP1 REVERT JUMPDEST POP PUSH2 0x14B PUSH2 0xD65 JUMP JUMPDEST CALLVALUE DUP1 ISZERO PUSH2 0x1CB JUMPI PUSH1 0x0 DUP1 REVERT JUMPDEST POP PUSH2 0x14B PUSH2 0xE38 JUMP JUMPDEST CALLVALUE DUP1 ISZERO PUSH2 0x1E0 JUMPI PUSH1 0x0 DUP1 REVERT JUMPDEST POP PUSH2 0x14B PUSH2 0xE64 JUMP JUMPDEST CALLVALUE DUP1 ISZERO PUSH2 0x1F5 JUMPI PUSH1 0x0 DUP1 REVERT JUMPDEST POP PUSH2 0x14B PUSH2 0xF22 JUMP JUMPDEST CALLVALUE DUP1 ISZERO PUSH2 0x20A JUMPI PUSH1 0x0 DUP1 REVERT JUMPDEST POP PUSH2 0x14B PUSH2 0xFCC JUMP JUMPDEST CALLVALUE DUP1 ISZERO PUSH2 0x21F JUMPI PUSH1 0x0 DUP1 REVERT JUMPDEST POP PUSH2 0x14B PUSH2 0x1076 JUMP JUMPDEST PUSH2 0x14B PUSH2 0x1144 JUMP JUMPDEST CALLVALUE DUP1 ISZERO PUSH2 0x23C JUMPI PUSH1 0x0 DUP1 REVERT JUMPDEST POP PUSH2 0x14B PUSH2 0x1215 JUMP JUMPDEST CALLVALUE DUP1 ISZERO PUSH2 0x251 JUMPI PUSH1 0x0 DUP1 REVERT JUMPDEST POP PUSH2 0x14B PUSH2 0x12BF JUMP JUMPDEST CALLVALUE DUP1 ISZERO PUSH2 0x266 JUMPI PUSH1 0x0 DUP1 REVERT JUMPDEST POP PUSH2 0x14B PUSH2 0x1369 JUMP JUMPDEST PUSH1 0x40 DUP1 MLOAD PUSH1 0x4 DUP2 MSTORE PUSH1 0x24 DUP2 ADD DUP3 MSTORE PUSH1 0x20 DUP2 ADD DUP1 MLOAD PUSH1 0x1 PUSH1 0x1 PUSH1 0xE0 SHL SUB AND PUSH4 0x36CB886F PUSH1 0xE2 SHL OR SWAP1 MSTORE PUSH1 0x0 DUP1 SLOAD SWAP3 MLOAD SWAP2 SWAP3 SWAP1 SWAP2 PUSH1 0x1 PUSH1 0x1 PUSH1 0xA0 SHL SUB SWAP1 SWAP2 AND SWAP1 PUSH2 0x2B8 SWAP1 DUP5 SWAP1 PUSH2 0x1458 JUMP JUMPDEST PUSH1 0x0 PUSH1 0x40 MLOAD DUP1 DUP4 SUB DUP2 PUSH1 0x0 DUP7 GAS CALL SWAP2 POP POP RETURNDATASIZE DUP1 PUSH1 0x0 DUP2 EQ PUSH2 0x2F5 JUMPI PUSH1 0x40 MLOAD SWAP2 POP PUSH1 0x1F NOT PUSH1 0x3F RETURNDATASIZE ADD AND DUP3 ADD PUSH1 0x40 MSTORE RETURNDATASIZE DUP3 MSTORE RETURNDATASIZE PUSH1 0x0 PUSH1 0x20 DUP5 ADD RETURNDATACOPY PUSH2 0x2FA JUMP JUMPDEST PUSH1 0x60 SWAP2 POP JUMPDEST POP POP SWAP1 POP DUP1 ISZERO PUSH2 0x325 JUMPI PUSH9 0x1298A2E67F0600000 PUSH1 0x1 PUSH1 0x0 DUP3 DUP3 SLOAD PUSH2 0x31F SWAP2 SWAP1 PUSH2 0x1481 JUMP JUMPDEST SWAP1 SWAP2 SSTORE POP POP JUMPDEST POP POP JUMP JUMPDEST PUSH1 0x0 JUMPDEST PUSH1 0x3 DUP2 LT ISZERO PUSH2 0x40D JUMPI PUSH1 0x0 DUP1 SLOAD PUSH1 0x40 MLOAD PUSH8 0x22B1C8C1227A0000 PUSH1 0x24 DUP3 ADD MSTORE PUSH1 0x1 PUSH1 0x1 PUSH1 0xA0 SHL SUB SWAP1 SWAP2 AND SWAP1 PUSH1 0x44 ADD PUSH1 0x40 DUP1 MLOAD PUSH1 0x1F NOT DUP2 DUP5 SUB ADD DUP2 MSTORE SWAP2 DUP2 MSTORE PUSH1 0x20 DUP3 ADD DUP1 MLOAD PUSH1 0x1 PUSH1 0x1 PUSH1 0xE0 SHL SUB AND PUSH4 0x2E1A7D4D PUSH1 0xE0 SHL OR SWAP1 MSTORE MLOAD PUSH2 0x38E SWAP2 SWAP1 PUSH2 0x1458 JUMP JUMPDEST PUSH1 0x0 PUSH1 0x40 MLOAD DUP1 DUP4 SUB DUP2 PUSH1 0x0 DUP7 GAS CALL SWAP2 POP POP RETURNDATASIZE DUP1 PUSH1 0x0 DUP2 EQ PUSH2 0x3CB JUMPI PUSH1 0x40 MLOAD SWAP2 POP PUSH1 0x1F NOT PUSH1 0x3F RETURNDATASIZE ADD AND DUP3 ADD PUSH1 0x40 MSTORE RETURNDATASIZE DUP3 MSTORE RETURNDATASIZE PUSH1 0x0 PUSH1 0x20 DUP5 ADD RETURNDATACOPY PUSH2 0x3D0 JUMP JUMPDEST PUSH1 0x60 SWAP2 POP JUMPDEST POP POP SWAP1 POP DUP1 ISZERO PUSH2 0x3FA JUMPI PUSH8 0x22B1C8C1227A0000 PUSH1 0x1 PUSH1 0x0 DUP3 DUP3 SLOAD PUSH2 0x3F4 SWAP2 SWAP1 PUSH2 0x1481 JUMP JUMPDEST SWAP1 SWAP2 SSTORE POP POP JUMPDEST POP DUP1 PUSH2 0x405 DUP2 PUSH2 0x149A JUMP JUMPDEST SWAP2 POP POP PUSH2 0x32C JUMP JUMPDEST POP JUMP JUMPDEST ADDRESS PUSH1 0x1 PUSH1 0x1 PUSH1 0xA0 SHL SUB AND PUSH4 0xB976F00D PUSH1 0x40 MLOAD DUP2 PUSH4 0xFFFFFFFF AND PUSH1 0xE0 SHL DUP2 MSTORE PUSH1 0x4 ADD PUSH1 0x0 PUSH1 0x40 MLOAD DUP1 DUP4 SUB DUP2 PUSH1 0x0 DUP8 DUP1 EXTCODESIZE ISZERO DUP1 ISZERO PUSH2 0x44B JUMPI PUSH1 0x0 DUP1 REVERT JUMPDEST POP GAS CALL ISZERO DUP1 ISZERO PUSH2 0x45F JUMPI RETURNDATASIZE PUSH1 0x0 DUP1 RETURNDATACOPY RETURNDATASIZE PUSH1 0x0 REVERT JUMPDEST POP POP POP POP ADDRESS PUSH1 0x1 PUSH1 0x1 PUSH1 0xA0 SHL SUB AND PUSH4 0xD278A9E PUSH1 0x40 MLOAD DUP2 PUSH4 0xFFFFFFFF AND PUSH1 0xE0 SHL DUP2 MSTORE PUSH1 0x4 ADD PUSH1 0x0 PUSH1 0x40 MLOAD DUP1 DUP4 SUB DUP2 PUSH1 0x0 DUP8 DUP1 EXTCODESIZE ISZERO DUP1 ISZERO PUSH2 0x49E JUMPI PUSH1 0x0 DUP1 REVERT JUMPDEST POP GAS CALL ISZERO DUP1 ISZERO PUSH2 0x4B2 JUMPI RETURNDATASIZE PUSH1 0x0 DUP1 RETURNDATACOPY RETURNDATASIZE PUSH1 0x0 REVERT JUMPDEST POP POP POP POP ADDRESS PUSH1 0x1 PUSH1 0x1 PUSH1 0xA0 SHL SUB AND PUSH4 0x7FB41E9 PUSH1 0x40 MLOAD DUP2 PUSH4 0xFFFFFFFF AND PUSH1 0xE0 SHL DUP2 MSTORE PUSH1 0x4 ADD PUSH1 0x0 PUSH1 0x40 MLOAD DUP1 DUP4 SUB DUP2 PUSH1 0x0 DUP8 DUP1 EXTCODESIZE ISZERO DUP1 ISZERO PUSH2 0x4F1 JUMPI PUSH1 0x0 DUP1 REVERT JUMPDEST POP GAS CALL ISZERO DUP1 ISZERO PUSH2 0x505 JUMPI RETURNDATASIZE PUSH1 0x0 DUP1 RETURNDATACOPY RETURNDATASIZE PUSH1 0x0 REVERT JUMPDEST POP POP POP POP ADDRESS PUSH1 0x1 PUSH1 0x1 PUSH1 0xA0 SHL SUB AND PUSH4 0xE5782328 PUSH1 0x40 MLOAD DUP2 PUSH4 0xFFFFFFFF AND PUSH1 0xE0 SHL DUP2 MSTORE PUSH1 0x4 ADD PUSH1 0x0 PUSH1 0x40 MLOAD DUP1 DUP4 SUB DUP2 PUSH1 0x0 DUP8 DUP1 EXTCODESIZE ISZERO DUP1 ISZERO PUSH2 0x544 JUMPI PUSH1 0x0 DUP1 REVERT JUMPDEST POP GAS CALL ISZERO DUP1 ISZERO PUSH2 0x558 JUMPI RETURNDATASIZE PUSH1 0x0 DUP1 RETURNDATACOPY RETURNDATASIZE PUSH1 0x0 REVERT JUMPDEST POP POP POP POP ADDRESS PUSH1 0x1 PUSH1 0x1 PUSH1 0xA0 SHL SUB AND PUSH4 0xDC2DEA24 PUSH1 0x40 MLOAD DUP2 PUSH4 0xFFFFFFFF AND PUSH1 0xE0 SHL DUP2 MSTORE PUSH1 0x4 ADD PUSH1 0x0 PUSH1 0x40 MLOAD DUP1 DUP4 SUB DUP2 PUSH1 0x0 DUP8 DUP1 EXTCODESIZE ISZERO DUP1 ISZERO PUSH2 0x597 JUMPI PUSH1 0x0 DUP1 REVERT JUMPDEST POP GAS CALL ISZERO DUP1 ISZERO PUSH2 0x5AB JUMPI RETURNDATASIZE PUSH1 0x0 DUP1 RETURNDATACOPY RETURNDATASIZE PUSH1 0x0 REVERT JUMPDEST POP POP POP POP ADDRESS PUSH1 0x1 PUSH1 0x1 PUSH1 0xA0 SHL SUB AND PUSH4 0xAB33D62D PUSH1 0x40 MLOAD DUP2 PUSH4 0xFFFFFFFF AND PUSH1 0xE0 SHL DUP2 MSTORE PUSH1 0x4 ADD PUSH1 0x0 PUSH1 0x40 MLOAD DUP1 DUP4 SUB DUP2 PUSH1 0x0 DUP8 DUP1 EXTCODESIZE ISZERO DUP1 ISZERO PUSH2 0x5EA JUMPI PUSH1 0x0 DUP1 REVERT JUMPDEST POP GAS CALL ISZERO DUP1 ISZERO PUSH2 0x5FE JUMPI RETURNDATASIZE PUSH1 0x0 DUP1 RETURNDATACOPY RETURNDATASIZE PUSH1 0x0 REVERT JUMPDEST POP POP POP POP ADDRESS PUSH1 0x1 PUSH1 0x1 PUSH1 0xA0 SHL SUB AND PUSH4 0x8FA235DE PUSH1 0x40 MLOAD DUP2 PUSH4 0xFFFFFFFF AND PUSH1 0xE0 SHL DUP2 MSTORE PUSH1 0x4 ADD PUSH1 0x0 PUSH1 0x40 MLOAD DUP1 DUP4 SUB DUP2 PUSH1 0x0 DUP8 DUP1 EXTCODESIZE ISZERO DUP1 ISZERO PUSH2 0x63D JUMPI PUSH1 0x0 DUP1 REVERT JUMPDEST POP GAS CALL ISZERO DUP1 ISZERO PUSH2 0x651 JUMPI RETURNDATASIZE PUSH1 0x0 DUP1 RETURNDATACOPY RETURNDATASIZE PUSH1 0x0 REVERT JUMPDEST POP POP POP POP ADDRESS PUSH1 0x1 PUSH1 0x1 PUSH1 0xA0 SHL SUB AND PUSH4 0x69388FD5 PUSH1 0x40 MLOAD DUP2 PUSH4 0xFFFFFFFF AND PUSH1 0xE0 SHL DUP2 MSTORE PUSH1 0x4 ADD PUSH1 0x0 PUSH1 0x40 MLOAD DUP1 DUP4 SUB DUP2 PUSH1 0x0 DUP8 DUP1 EXTCODESIZE ISZERO DUP1 ISZERO PUSH2 0x690 JUMPI PUSH1 0x0 DUP1 REVERT JUMPDEST POP GAS CALL ISZERO DUP1 ISZERO PUSH2 0x6A4 JUMPI RETURNDATASIZE PUSH1 0x0 DUP1 RETURNDATACOPY RETURNDATASIZE PUSH1 0x0 REVERT JUMPDEST POP POP POP POP ADDRESS PUSH1 0x1 PUSH1 0x1 PUSH1 0xA0 SHL SUB AND PUSH4 0xF0444802 PUSH1 0x40 MLOAD DUP2 PUSH4 0xFFFFFFFF AND PUSH1 0xE0 SHL DUP2 MSTORE PUSH1 0x4 ADD PUSH1 0x0 PUSH1 0x40 MLOAD DUP1 DUP4 SUB DUP2 PUSH1 0x0 DUP8 DUP1 EXTCODESIZE ISZERO DUP1 ISZERO PUSH2 0x6E3 JUMPI PUSH1 0x0 DUP1 REVERT JUMPDEST POP GAS CALL ISZERO DUP1 ISZERO PUSH2 0x6F7 JUMPI RETURNDATASIZE PUSH1 0x0 DUP1 RETURNDATACOPY RETURNDATASIZE PUSH1 0x0 REVERT JUMPDEST POP POP POP POP ADDRESS PUSH1 0x1 PUSH1 0x1 PUSH1 0xA0 SHL SUB AND PUSH4 0xAC2A091C PUSH1 0x40 MLOAD DUP2 PUSH4 0xFFFFFFFF AND PUSH1 0xE0 SHL DUP2 MSTORE PUSH1 0x4 ADD PUSH1 0x0 PUSH1 0x40 MLOAD DUP1 DUP4 SUB DUP2 PUSH1 0x0 DUP8 DUP1 EXTCODESIZE ISZERO DUP1 ISZERO PUSH2 0x736 JUMPI PUSH1 0x0 DUP1 REVERT JUMPDEST POP GAS CALL ISZERO DUP1 ISZERO PUSH2 0x74A JUMPI RETURNDATASIZE PUSH1 0x0 DUP1 RETURNDATACOPY RETURNDATASIZE PUSH1 0x0 REVERT JUMPDEST POP POP POP POP ADDRESS PUSH1 0x1 PUSH1 0x1 PUSH1 0xA0 SHL SUB AND PUSH4 0x2C67BD96 PUSH1 0x40 MLOAD DUP2 PUSH4 0xFFFFFFFF AND PUSH1 0xE0 SHL DUP2 MSTORE PUSH1 0x4 ADD PUSH1 0x0 PUSH1 0x40 MLOAD DUP1 DUP4 SUB DUP2 PUSH1 0x0 DUP8 DUP1 EXTCODESIZE ISZERO DUP1 ISZERO PUSH2 0x789 JUMPI PUSH1 0x0 DUP1 REVERT JUMPDEST POP GAS CALL ISZERO DUP1 ISZERO PUSH2 0x79D JUMPI RETURNDATASIZE PUSH1 0x0 DUP1 RETURNDATACOPY RETURNDATASIZE PUSH1 0x0 REVERT JUMPDEST POP POP POP POP ADDRESS PUSH1 0x1 PUSH1 0x1 PUSH1 0xA0 SHL SUB AND PUSH4 0x9FA68B67 PUSH1 0x40 MLOAD DUP2 PUSH4 0xFFFFFFFF AND PUSH1 0xE0 SHL DUP2 MSTORE PUSH1 0x4 ADD PUSH1 0x0 PUSH1 0x40 MLOAD DUP1 DUP4 SUB DUP2 PUSH1 0x0 DUP8 DUP1 EXTCODESIZE ISZERO DUP1 ISZERO PUSH2 0x7DC JUMPI PUSH1 0x0 DUP1 REVERT JUMPDEST POP GAS CALL ISZERO DUP1 ISZERO PUSH2 0x7F0 JUMPI RETURNDATASIZE PUSH1 0x0 DUP1 RETURNDATACOPY RETURNDATASIZE PUSH1 0x0 REVERT JUMPDEST POP POP POP POP JUMP JUMPDEST PUSH1 0x0 DUP1 SLOAD PUSH1 0x40 MLOAD CALLER PUSH1 0x24 DUP3 ADD MSTORE PUSH1 0x1 PUSH1 0x1 PUSH1 0xA0 SHL SUB SWAP1 SWAP2 AND SWAP1 PUSH1 0x44 ADD PUSH1 0x40 DUP1 MLOAD PUSH1 0x1F NOT DUP2 DUP5 SUB ADD DUP2 MSTORE SWAP2 DUP2 MSTORE PUSH1 0x20 DUP3 ADD DUP1 MLOAD PUSH1 0x1 PUSH1 0x1 PUSH1 0xE0 SHL SUB AND PUSH4 0x13AF4035 PUSH1 0xE0 SHL OR SWAP1 MSTORE MLOAD PUSH2 0x847 SWAP2 SWAP1 PUSH2 0x1458 JUMP JUMPDEST PUSH1 0x0 PUSH1 0x40 MLOAD DUP1 DUP4 SUB DUP2 PUSH1 0x0 DUP7 GAS CALL SWAP2 POP POP RETURNDATASIZE DUP1 PUSH1 0x0 DUP2 EQ PUSH2 0x884 JUMPI PUSH1 0x40 MLOAD SWAP2 POP PUSH1 0x1F NOT PUSH1 0x3F RETURNDATASIZE ADD AND DUP3 ADD PUSH1 0x40 MSTORE RETURNDATASIZE DUP3 MSTORE RETURNDATASIZE PUSH1 0x0 PUSH1 0x20 DUP5 ADD RETURNDATACOPY PUSH2 0x889 JUMP JUMPDEST PUSH1 0x60 SWAP2 POP JUMPDEST POP POP SWAP1 POP DUP1 ISZERO PUSH2 0x40D JUMPI PUSH1 0x0 DUP1 SLOAD PUSH1 0x40 MLOAD PUSH8 0x5AC2BF597F0E0000 PUSH1 0x24 DUP3 ADD MSTORE PUSH1 0x1 PUSH1 0x1 PUSH1 0xA0 SHL SUB SWAP1 SWAP2 AND SWAP1 PUSH1 0x44 ADD PUSH1 0x40 DUP1 MLOAD PUSH1 0x1F NOT DUP2 DUP5 SUB ADD DUP2 MSTORE SWAP2 DUP2 MSTORE PUSH1 0x20 DUP3 ADD DUP1 MLOAD PUSH1 0x1 PUSH1 0x1 PUSH1 0xE0 SHL SUB AND PUSH4 0x2E1A7D4D PUSH1 0xE0 SHL OR SWAP1 MSTORE MLOAD PUSH2 0x8EC SWAP2 SWAP1 PUSH2 0x1458 JUMP JUMPDEST PUSH1 0x0 PUSH1 0x40 MLOAD DUP1 DUP4 SUB DUP2 PUSH1 0x0 DUP7 GAS CALL SWAP2 POP POP RETURNDATASIZE DUP1 PUSH1 0x0 DUP2 EQ PUSH2 0x929 JUMPI PUSH1 0x40 MLOAD SWAP2 POP PUSH1 0x1F NOT PUSH1 0x3F RETURNDATASIZE ADD AND DUP3 ADD PUSH1 0x40 MSTORE RETURNDATASIZE DUP3 MSTORE RETURNDATASIZE PUSH1 0x0 PUSH1 0x20 DUP5 ADD RETURNDATACOPY PUSH2 0x92E JUMP JUMPDEST PUSH1 0x60 SWAP2 POP JUMPDEST POP POP SWAP1 POP DUP1 ISZERO PUSH2 0x325 JUMPI PUSH8 0x5AC2BF597F0E0000 PUSH1 0x1 PUSH1 0x0 DUP3 DUP3 SLOAD PUSH2 0x31F SWAP2 SWAP1 PUSH2 0x1481 JUMP JUMPDEST PUSH1 0x40 DUP1 MLOAD PUSH2 0x140 DUP2 ADD DUP3 MSTORE PUSH4 0x3CCFD60B PUSH1 0xE0 SHL DUP2 MSTORE PUSH4 0x51CFF8D9 PUSH1 0xE0 SHL PUSH1 0x20 DUP3 ADD MSTORE PUSH4 0x2E1A7D4D PUSH1 0xE0 SHL SWAP2 DUP2 ADD SWAP2 SWAP1 SWAP2 MSTORE PUSH4 0x74FD6C77 PUSH1 0xE1 SHL PUSH1 0x60 DUP3 ADD MSTORE PUSH4 0xDB006A75 PUSH1 0xE0 SHL PUSH1 0x80 DUP3 ADD MSTORE PUSH4 0xF3FEF3A3 PUSH1 0xE0 SHL PUSH1 0xA0 DUP3 ADD MSTORE PUSH4 0xB2C87C61 PUSH1 0xE0 SHL PUSH1 0xC0 DUP3 ADD MSTORE PUSH3 0xB40D31 PUSH1 0xE1 SHL PUSH1 0xE0 DUP3 ADD MSTORE PUSH4 0x3C7088FB PUSH1 0xE1 SHL PUSH2 0x100 DUP3 ADD MSTORE PUSH4 0x13AF4035 PUSH1 0xE0 SHL PUSH2 0x120 DUP3 ADD MSTORE PUSH1 0x0 JUMPDEST PUSH1 0xA DUP2 LT ISZERO PUSH2 0x325 JUMPI PUSH1 0x0 DUP3 DUP3 PUSH1 0xA DUP2 LT PUSH2 0x9FF JUMPI PUSH2 0x9FF PUSH2 0x14B3 JUMP JUMPDEST PUSH1 0x20 MUL ADD MLOAD PUSH1 0x40 MLOAD PUSH1 0x20 ADD PUSH2 0xA24 SWAP2 SWAP1 PUSH1 0x1 PUSH1 0x1 PUSH1 0xE0 SHL SUB NOT SWAP2 SWAP1 SWAP2 AND DUP2 MSTORE PUSH1 0x4 ADD SWAP1 JUMP JUMPDEST PUSH1 0x40 MLOAD PUSH1 0x20 DUP2 DUP4 SUB SUB DUP2 MSTORE SWAP1 PUSH1 0x40 MSTORE SWAP1 POP PUSH1 0x0 DUP4 DUP4 PUSH1 0xA DUP2 LT PUSH2 0xA49 JUMPI PUSH2 0xA49 PUSH2 0x14B3 JUMP JUMPDEST PUSH1 0x20 MUL ADD MLOAD CALLER PUSH1 0x40 MLOAD PUSH1 0x20 ADD PUSH2 0xA6E SWAP2 SWAP1 PUSH1 0x1 PUSH1 0x1 PUSH1 0xA0 SHL SUB SWAP2 SWAP1 SWAP2 AND DUP2 MSTORE PUSH1 0x20 ADD SWAP1 JUMP JUMPDEST PUSH1 0x40 DUP1 MLOAD PUSH1 0x1F NOT DUP2 DUP5 SUB ADD DUP2 MSTORE SWAP1 DUP3 SWAP1 MSTORE PUSH2 0xA8C SWAP3 SWAP2 PUSH1 0x20 ADD PUSH2 0x14C9 JUMP JUMPDEST PUSH1 0x40 MLOAD PUSH1 0x20 DUP2 DUP4 SUB SUB DUP2 MSTORE SWAP1 PUSH1 0x40 MSTORE SWAP1 POP PUSH1 0x0 DUP5 DUP5 PUSH1 0xA DUP2 LT PUSH2 0xAB1 JUMPI PUSH2 0xAB1 PUSH2 0x14B3 JUMP JUMPDEST PUSH1 0x20 MUL ADD MLOAD PUSH8 0xDE0B6B3A7640000 PUSH1 0x40 MLOAD PUSH1 0x20 ADD PUSH2 0xADF SWAP2 SWAP1 PUSH8 0xFFFFFFFFFFFFFFFF SWAP2 SWAP1 SWAP2 AND DUP2 MSTORE PUSH1 0x20 ADD SWAP1 JUMP JUMPDEST PUSH1 0x40 DUP1 MLOAD PUSH1 0x1F NOT DUP2 DUP5 SUB ADD DUP2 MSTORE SWAP1 DUP3 SWAP1 MSTORE PUSH2 0xAFD SWAP3 SWAP2 PUSH1 0x20 ADD PUSH2 0x14C9 JUMP JUMPDEST PUSH1 0x40 MLOAD PUSH1 0x20 DUP2 DUP4 SUB SUB DUP2 MSTORE SWAP1 PUSH1 0x40 MSTORE SWAP1 POP PUSH1 0x0 DUP6 DUP6 PUSH1 0xA DUP2 LT PUSH2 0xB22 JUMPI PUSH2 0xB22 PUSH2 0x14B3 JUMP JUMPDEST PUSH1 0x20 SWAP1 DUP2 MUL SWAP2 SWAP1 SWAP2 ADD MLOAD PUSH1 0x40 DUP1 MLOAD CALLER SWAP4 DUP2 ADD SWAP4 SWAP1 SWAP4 MSTORE PUSH8 0xDE0B6B3A7640000 DUP4 DUP3 ADD MSTORE DUP1 MLOAD DUP1 DUP5 SUB DUP3 ADD DUP2 MSTORE PUSH1 0x60 DUP5 ADD SWAP1 SWAP2 MSTORE PUSH2 0xB61 SWAP3 PUSH1 0x80 ADD PUSH2 0x14C9 JUMP JUMPDEST PUSH1 0x40 DUP1 MLOAD PUSH1 0x1F NOT DUP2 DUP5 SUB ADD DUP2 MSTORE SWAP1 DUP3 SWAP1 MSTORE PUSH1 0x0 DUP1 SLOAD SWAP2 SWAP4 POP SWAP2 PUSH1 0x1 PUSH1 0x1 PUSH1 0xA0 SHL SUB SWAP1 SWAP2 AND SWAP1 PUSH2 0xB91 SWAP1 DUP8 SWAP1 PUSH2 0x1458 JUMP JUMPDEST PUSH1 0x0 PUSH1 0x40 MLOAD DUP1 DUP4 SUB DUP2 PUSH1 0x0 DUP7 GAS CALL SWAP2 POP POP RETURNDATASIZE DUP1 PUSH1 0x0 DUP2 EQ PUSH2 0xBCE JUMPI PUSH1 0x40 MLOAD SWAP2 POP PUSH1 0x1F NOT PUSH1 0x3F RETURNDATASIZE ADD AND DUP3 ADD PUSH1 0x40 MSTORE RETURNDATASIZE DUP3 MSTORE RETURNDATASIZE PUSH1 0x0 PUSH1 0x20 DUP5 ADD RETURNDATACOPY PUSH2 0xBD3 JUMP JUMPDEST PUSH1 0x60 SWAP2 POP JUMPDEST POP POP PUSH1 0x0 DUP1 SLOAD PUSH1 0x40 MLOAD SWAP3 SWAP4 POP SWAP1 SWAP2 PUSH1 0x1 PUSH1 0x1 PUSH1 0xA0 SHL SUB SWAP1 SWAP2 AND SWAP1 PUSH2 0xBF8 SWAP1 DUP8 SWAP1 PUSH2 0x1458 JUMP JUMPDEST PUSH1 0x0 PUSH1 0x40 MLOAD DUP1 DUP4 SUB DUP2 PUSH1 0x0 DUP7 GAS CALL SWAP2 POP POP RETURNDATASIZE DUP1 PUSH1 0x0 DUP2 EQ PUSH2 0xC35 JUMPI PUSH1 0x40 MLOAD SWAP2 POP PUSH1 0x1F NOT PUSH1 0x3F RETURNDATASIZE ADD AND DUP3 ADD PUSH1 0x40 MSTORE RETURNDATASIZE DUP3 MSTORE RETURNDATASIZE PUSH1 0x0 PUSH1 0x20 DUP5 ADD RETURNDATACOPY PUSH2 0xC3A JUMP JUMPDEST PUSH1 0x60 SWAP2 POP JUMPDEST POP POP PUSH1 0x0 DUP1 SLOAD PUSH1 0x40 MLOAD SWAP3 SWAP4 POP SWAP1 SWAP2 PUSH1 0x1 PUSH1 0x1 PUSH1 0xA0 SHL SUB SWAP1 SWAP2 AND SWAP1 PUSH2 0xC5F SWAP1 DUP8 SWAP1 PUSH2 0x1458 JUMP JUMPDEST PUSH1 0x0 PUSH1 0x40 MLOAD DUP1 DUP4 SUB DUP2 PUSH1 0x0 DUP7 GAS CALL SWAP2 POP POP RETURNDATASIZE DUP1 PUSH1 0x0 DUP2 EQ PUSH2 0xC9C JUMPI PUSH1 0x40 MLOAD SWAP2 POP PUSH1 0x1F NOT PUSH1 0x3F RETURNDATASIZE ADD AND DUP3 ADD PUSH1 0x40 MSTORE RETURNDATASIZE DUP3 MSTORE RETURNDATASIZE PUSH1 0x0 PUSH1 0x20 DUP5 ADD RETURNDATACOPY PUSH2 0xCA1 JUMP JUMPDEST PUSH1 0x60 SWAP2 POP JUMPDEST POP POP PUSH1 0x0 DUP1 SLOAD PUSH1 0x40 MLOAD SWAP3 SWAP4 POP SWAP1 SWAP2 PUSH1 0x1 PUSH1 0x1 PUSH1 0xA0 SHL SUB SWAP1 SWAP2 AND SWAP1 PUSH2 0xCC6 SWAP1 DUP8 SWAP1 PUSH2 0x1458 JUMP JUMPDEST PUSH1 0x0 PUSH1 0x40 MLOAD DUP1 DUP4 SUB DUP2 PUSH1 0x0 DUP7 GAS CALL SWAP2 POP POP RETURNDATASIZE DUP1 PUSH1 0x0 DUP2 EQ PUSH2 0xD03 JUMPI PUSH1 0x40 MLOAD SWAP2 POP PUSH1 0x1F NOT PUSH1 0x3F RETURNDATASIZE ADD AND DUP3 ADD PUSH1 0x40 MSTORE RETURNDATASIZE DUP3 MSTORE RETURNDATASIZE PUSH1 0x0 PUSH1 0x20 DUP5 ADD RETURNDATACOPY PUSH2 0xD08 JUMP JUMPDEST PUSH1 0x60 SWAP2 POP JUMPDEST POP POP SWAP1 POP DUP4 DUP1 PUSH2 0xD15 JUMPI POP DUP3 JUMPDEST DUP1 PUSH2 0xD1D JUMPI POP DUP2 JUMPDEST DUP1 PUSH2 0xD25 JUMPI POP DUP1 JUMPDEST ISZERO PUSH2 0xD4A JUMPI PUSH8 0x16345785D8A0000 PUSH1 0x1 PUSH1 0x0 DUP3 DUP3 SLOAD PUSH2 0xD44 SWAP2 SWAP1 PUSH2 0x1481 JUMP JUMPDEST SWAP1 SWAP2 SSTORE POP POP JUMPDEST POP POP POP POP POP POP POP POP DUP1 DUP1 PUSH2 0xD5D SWAP1 PUSH2 0x149A JUMP JUMPDEST SWAP2 POP POP PUSH2 0x9E2 JUMP JUMPDEST PUSH1 0x0 PUSH2 0xD75 PUSH2 0x3E8 PUSH1 0x0 NOT PUSH2 0x14ED JUMP JUMPDEST PUSH1 0x0 DUP1 SLOAD PUSH1 0x40 MLOAD CALLER PUSH1 0x24 DUP3 ADD MSTORE PUSH1 0x44 DUP2 ADD DUP5 SWAP1 MSTORE SWAP3 SWAP4 POP SWAP1 SWAP2 PUSH1 0x1 PUSH1 0x1 PUSH1 0xA0 SHL SUB SWAP1 SWAP2 AND SWAP1 PUSH1 0x64 ADD PUSH1 0x40 DUP1 MLOAD PUSH1 0x1F NOT DUP2 DUP5 SUB ADD DUP2 MSTORE SWAP2 DUP2 MSTORE PUSH1 0x20 DUP3 ADD DUP1 MLOAD PUSH1 0x1 PUSH1 0x1 PUSH1 0xE0 SHL SUB AND PUSH4 0xA9059CBB PUSH1 0xE0 SHL OR SWAP1 MSTORE MLOAD PUSH2 0xDD2 SWAP2 SWAP1 PUSH2 0x1458 JUMP JUMPDEST PUSH1 0x0 PUSH1 0x40 MLOAD DUP1 DUP4 SUB DUP2 PUSH1 0x0 DUP7 GAS CALL SWAP2 POP POP RETURNDATASIZE DUP1 PUSH1 0x0 DUP2 EQ PUSH2 0xE0F JUMPI PUSH1 0x40 MLOAD SWAP2 POP PUSH1 0x1F NOT PUSH1 0x3F RETURNDATASIZE ADD AND DUP3 ADD PUSH1 0x40 MSTORE RETURNDATASIZE DUP3 MSTORE RETURNDATASIZE PUSH1 0x0 PUSH1 0x20 DUP5 ADD RETURNDATACOPY PUSH2 0xE14 JUMP JUMPDEST PUSH1 0x60 SWAP2 POP JUMPDEST POP POP SWAP1 POP DUP1 ISZERO PUSH2 0x325 JUMPI PUSH8 0x7236D56545770000 PUSH1 0x1 PUSH1 0x0 DUP3 DUP3 SLOAD PUSH2 0x31F SWAP2 SWAP1 PUSH2 0x1481 JUMP JUMPDEST PUSH1 0x40 MLOAD CALLER SWAP1 SELFBALANCE DUP1 ISZERO PUSH2 0x8FC MUL SWAP2 PUSH1 0x0 DUP2 DUP2 DUP2 DUP6 DUP9 DUP9 CALL SWAP4 POP POP POP POP ISZERO DUP1 ISZERO PUSH2 0x40D JUMPI RETURNDATASIZE PUSH1 0x0 DUP1 RETURNDATACOPY RETURNDATASIZE PUSH1 0x0 REVERT JUMPDEST PUSH1 0x0 DUP1 SLOAD PUSH1 0x40 MLOAD ADDRESS PUSH1 0x24 DUP3 ADD MSTORE PUSH1 0x1 PUSH1 0x1 PUSH1 0xA0 SHL SUB SWAP1 SWAP2 AND SWAP1 PUSH1 0x44 ADD PUSH1 0x40 DUP1 MLOAD PUSH1 0x1F NOT DUP2 DUP5 SUB ADD DUP2 MSTORE SWAP2 DUP2 MSTORE PUSH1 0x20 DUP3 ADD DUP1 MLOAD PUSH1 0x1 PUSH1 0x1 PUSH1 0xE0 SHL SUB AND PUSH3 0xB40D31 PUSH1 0xE1 SHL OR SWAP1 MSTORE MLOAD PUSH2 0xEB4 SWAP2 SWAP1 PUSH2 0x1458 JUMP JUMPDEST PUSH1 0x0 PUSH1 0x40 MLOAD DUP1 DUP4 SUB DUP2 PUSH1 0x0 DUP7 GAS CALL SWAP2 POP POP RETURNDATASIZE DUP1 PUSH1 0x0 DUP2 EQ PUSH2 0xEF1 JUMPI PUSH1 0x40 MLOAD SWAP2 POP PUSH1 0x1F NOT PUSH1 0x3F RETURNDATASIZE ADD AND DUP3 ADD PUSH1 0x40 MSTORE RETURNDATASIZE DUP3 MSTORE RETURNDATASIZE PUSH1 0x0 PUSH1 0x20 DUP5 ADD RETURNDATACOPY PUSH2 0xEF6 JUMP JUMPDEST PUSH1 0x60 SWAP2 POP JUMPDEST POP POP SWAP1 POP DUP1 ISZERO PUSH2 0x40D JUMPI PUSH8 0x4638BB30E37A0000 PUSH1 0x1 PUSH1 0x0 DUP3 DUP3 SLOAD PUSH2 0xF1A SWAP2 SWAP1 PUSH2 0x1481 JUMP JUMPDEST SWAP1 SWAP2 SSTORE POP POP POP JUMP JUMPDEST PUSH1 0x0 DUP1 SLOAD PUSH1 0x40 DUP1 MLOAD PUSH1 0x4 DUP2 MSTORE PUSH1 0x24 DUP2 ADD DUP3 MSTORE PUSH1 0x20 DUP2 ADD DUP1 MLOAD PUSH1 0x1 PUSH1 0x1 PUSH1 0xE0 SHL SUB AND PUSH4 0xD0360E59 PUSH1 0xE0 SHL OR SWAP1 MSTORE SWAP1 MLOAD PUSH1 0x1 PUSH1 0x1 PUSH1 0xA0 SHL SUB SWAP1 SWAP3 AND SWAP2 PUSH2 0xF66 SWAP2 SWAP1 PUSH2 0x1458 JUMP JUMPDEST PUSH1 0x0 PUSH1 0x40 MLOAD DUP1 DUP4 SUB DUP2 PUSH1 0x0 DUP7 GAS CALL SWAP2 POP POP RETURNDATASIZE DUP1 PUSH1 0x0 DUP2 EQ PUSH2 0xFA3 JUMPI PUSH1 0x40 MLOAD SWAP2 POP PUSH1 0x1F NOT PUSH1 0x3F RETURNDATASIZE ADD AND DUP3 ADD PUSH1 0x40 MSTORE RETURNDATASIZE DUP3 MSTORE RETURNDATASIZE PUSH1 0x0 PUSH1 0x20 DUP5 ADD RETURNDATACOPY PUSH2 0xFA8 JUMP JUMPDEST PUSH1 0x60 SWAP2 POP JUMPDEST POP POP SWAP1 POP DUP1 ISZERO PUSH2 0x40D JUMPI PUSH8 0x29E931FFD5AE0000 PUSH1 0x1 PUSH1 0x0 DUP3 DUP3 SLOAD PUSH2 0xF1A SWAP2 SWAP1 PUSH2 0x1481 JUMP JUMPDEST PUSH1 0x0 DUP1 SLOAD PUSH1 0x40 DUP1 MLOAD PUSH1 0x4 DUP2 MSTORE PUSH1 0x24 DUP2 ADD DUP3 MSTORE PUSH1 0x20 DUP2 ADD DUP1 MLOAD PUSH1 0x1 PUSH1 0x1 PUSH1 0xE0 SHL SUB AND PUSH4 0xDD191719 PUSH1 0xE0 SHL OR SWAP1 MSTORE SWAP1 MLOAD PUSH1 0x1 PUSH1 0x1 PUSH1 0xA0 SHL SUB SWAP1 SWAP3 AND SWAP2 PUSH2 0x1010 SWAP2 SWAP1 PUSH2 0x1458 JUMP JUMPDEST PUSH1 0x0 PUSH1 0x40 MLOAD DUP1 DUP4 SUB DUP2 PUSH1 0x0 DUP7 GAS CALL SWAP2 POP POP RETURNDATASIZE DUP1 PUSH1 0x0 DUP2 EQ PUSH2 0x104D JUMPI PUSH1 0x40 MLOAD SWAP2 POP PUSH1 0x1F NOT PUSH1 0x3F RETURNDATASIZE ADD AND DUP3 ADD PUSH1 0x40 MSTORE RETURNDATASIZE DUP3 MSTORE RETURNDATASIZE PUSH1 0x0 PUSH1 0x20 DUP5 ADD RETURNDATACOPY PUSH2 0x1052 JUMP JUMPDEST PUSH1 0x60 SWAP2 POP JUMPDEST POP POP SWAP1 POP DUP1 ISZERO PUSH2 0x40D JUMPI PUSH8 0x3CA55BD8C4750000 PUSH1 0x1 PUSH1 0x0 DUP3 DUP3 SLOAD PUSH2 0xF1A SWAP2 SWAP1 PUSH2 0x1481 JUMP JUMPDEST PUSH1 0x0 DUP1 SLOAD PUSH1 0x40 DUP1 MLOAD CALLER PUSH1 0x20 DUP3 ADD MSTORE PUSH8 0x618F93C0E2FF0000 DUP2 DUP4 ADD MSTORE DUP2 MLOAD DUP1 DUP3 SUB DUP4 ADD DUP2 MSTORE PUSH1 0x60 DUP3 ADD SWAP1 SWAP3 MSTORE PUSH4 0x2468ACF PUSH1 0xE3 SHL SWAP4 SWAP3 PUSH1 0x1 PUSH1 0x1 PUSH1 0xA0 SHL SUB AND SWAP2 PUSH2 0x10C4 SWAP2 DUP6 SWAP2 SWAP1 PUSH1 0x80 ADD PUSH2 0x14C9 JUMP JUMPDEST PUSH1 0x40 DUP1 MLOAD PUSH1 0x1F NOT DUP2 DUP5 SUB ADD DUP2 MSTORE SWAP1 DUP3 SWAP1 MSTORE PUSH2 0x10DE SWAP2 PUSH2 0x1458 JUMP JUMPDEST PUSH1 0x0 PUSH1 0x40 MLOAD DUP1 DUP4 SUB DUP2 PUSH1 0x0 DUP7 GAS CALL SWAP2 POP POP RETURNDATASIZE DUP1 PUSH1 0x0 DUP2 EQ PUSH2 0x111B JUMPI PUSH1 0x40 MLOAD SWAP2 POP PUSH1 0x1F NOT PUSH1 0x3F RETURNDATASIZE ADD AND DUP3 ADD PUSH1 0x40 MSTORE RETURNDATASIZE DUP3 MSTORE RETURNDATASIZE PUSH1 0x0 PUSH1 0x20 DUP5 ADD RETURNDATACOPY PUSH2 0x1120 JUMP JUMPDEST PUSH1 0x60 SWAP2 POP JUMPDEST POP POP SWAP1 POP DUP1 ISZERO PUSH2 0x325 JUMPI PUSH8 0x618F93C0E2FF0000 PUSH1 0x1 PUSH1 0x0 DUP3 DUP3 SLOAD PUSH2 0x31F SWAP2 SWAP1 PUSH2 0x1481 JUMP JUMPDEST PUSH1 0x0 DUP1 SLOAD PUSH1 0x40 MLOAD CALLER PUSH1 0x24 DUP3 ADD MSTORE PUSH1 0x1 PUSH1 0x1 PUSH1 0xA0 SHL SUB SWAP1 SWAP2 AND BALANCE PUSH1 0x44 DUP3 ADD MSTORE PUSH1 0x64 ADD PUSH1 0x40 DUP1 MLOAD PUSH1 0x1F NOT DUP2 DUP5 SUB ADD DUP2 MSTORE SWAP2 DUP2 MSTORE PUSH1 0x20 DUP3 ADD DUP1 MLOAD PUSH1 0x1 PUSH1 0x1 PUSH1 0xE0 SHL SUB AND PUSH4 0xA9059CBB PUSH1 0xE0 SHL OR SWAP1 MSTORE PUSH1 0x0 DUP1 SLOAD SWAP2 MLOAD SWAP3 SWAP4 POP SWAP2 PUSH1 0x1 PUSH1 0x1 PUSH1 0xA0 SHL SUB SWAP1 SWAP2 AND SWAP1 PUSH2 0x11B0 SWAP1 DUP5 SWAP1 PUSH2 0x1458 JUMP JUMPDEST PUSH1 0x0 PUSH1 0x40 MLOAD DUP1 DUP4 SUB DUP2 DUP6 GAS DELEGATECALL SWAP2 POP POP RETURNDATASIZE DUP1 PUSH1 0x0 DUP2 EQ PUSH2 0x11EB JUMPI PUSH1 0x40 MLOAD SWAP2 POP PUSH1 0x1F NOT PUSH1 0x3F RETURNDATASIZE ADD AND DUP3 ADD PUSH1 0x40 MSTORE RETURNDATASIZE DUP3 MSTORE RETURNDATASIZE PUSH1 0x0 PUSH1 0x20 DUP5 ADD RETURNDATACOPY PUSH2 0x11F0 JUMP JUMPDEST PUSH1 0x60 SWAP2 POP JUMPDEST POP POP SWAP1 POP DUP1 ISZERO PUSH2 0x325 JUMPI PUSH9 0x1728974898EEE0000 PUSH1 0x1 PUSH1 0x0 DUP3 DUP3 SLOAD PUSH2 0x31F SWAP2 SWAP1 PUSH2 0x1481 JUMP JUMPDEST PUSH1 0x0 DUP1 SLOAD PUSH1 0x40 DUP1 MLOAD PUSH1 0x4 DUP2 MSTORE PUSH1 0x24 DUP2 ADD DUP3 MSTORE PUSH1 0x20 DUP2 ADD DUP1 MLOAD PUSH1 0x1 PUSH1 0x1 PUSH1 0xE0 SHL SUB AND PUSH4 0xD47F6877 PUSH1 0xE0 SHL OR SWAP1 MSTORE SWAP1 MLOAD PUSH1 0x1 PUSH1 0x1 PUSH1 0xA0 SHL SUB SWAP1 SWAP3 AND SWAP2 PUSH2 0x1259 SWAP2 SWAP1 PUSH2 0x1458 JUMP JUMPDEST PUSH1 0x0 PUSH1 0x40 MLOAD DUP1 DUP4 SUB DUP2 PUSH1 0x0 DUP7 GAS CALL SWAP2 POP POP RETURNDATASIZE DUP1 PUSH1 0x0 DUP2 EQ PUSH2 0x1296 JUMPI PUSH1 0x40 MLOAD SWAP2 POP PUSH1 0x1F NOT PUSH1 0x3F RETURNDATASIZE ADD AND DUP3 ADD PUSH1 0x40 MSTORE RETURNDATASIZE DUP3 MSTORE RETURNDATASIZE PUSH1 0x0 PUSH1 0x20 DUP5 ADD RETURNDATACOPY PUSH2 0x129B JUMP JUMPDEST PUSH1 0x60 SWAP2 POP JUMPDEST POP POP SWAP1 POP DUP1 ISZERO PUSH2 0x40D JUMPI PUSH8 0xAB407C9EB0520000 PUSH1 0x1 PUSH1 0x0 DUP3 DUP3 SLOAD PUSH2 0xF1A SWAP2 SWAP1 PUSH2 0x1481 JUMP JUMPDEST PUSH1 0x0 DUP1 SLOAD PUSH1 0x40 DUP1 MLOAD PUSH1 0x4 DUP2 MSTORE PUSH1 0x24 DUP2 ADD DUP3 MSTORE PUSH1 0x20 DUP2 ADD DUP1 MLOAD PUSH1 0x1 PUSH1 0x1 PUSH1 0xE0 SHL SUB AND PUSH4 0x9890220B PUSH1 0xE0 SHL OR SWAP1 MSTORE SWAP1 MLOAD PUSH1 0x1 PUSH1 0x1 PUSH1 0xA0 SHL SUB SWAP1 SWAP3 AND SWAP2 PUSH2 0x1303 SWAP2 SWAP1 PUSH2 0x1458 JUMP JUMPDEST PUSH1 0x0 PUSH1 0x40 MLOAD DUP1 DUP4 SUB DUP2 PUSH1 0x0 DUP7 GAS CALL SWAP2 POP POP RETURNDATASIZE DUP1 PUSH1 0x0 DUP2 EQ PUSH2 0x1340 JUMPI PUSH1 0x40 MLOAD SWAP2 POP PUSH1 0x1F NOT PUSH1 0x3F RETURNDATASIZE ADD AND DUP3 ADD PUSH1 0x40 MSTORE RETURNDATASIZE DUP3 MSTORE RETURNDATASIZE PUSH1 0x0 PUSH1 0x20 DUP5 ADD RETURNDATACOPY PUSH2 0x1345 JUMP JUMPDEST PUSH1 0x60 SWAP2 POP JUMPDEST POP POP SWAP1 POP DUP1 ISZERO PUSH2 0x40D JUMPI PUSH8 0xCBB9D638D6BC0000 PUSH1 0x1 PUSH1 0x0 DUP3 DUP3 SLOAD PUSH2 0xF1A SWAP2 SWAP1 PUSH2 0x1481 JUMP JUMPDEST PUSH1 0x0 DUP1 SLOAD PUSH1 0x40 MLOAD PUSH8 0x30D98D59A9600000 PUSH1 0x24 DUP3 ADD MSTORE PUSH1 0x1 PUSH1 0x1 PUSH1 0xA0 SHL SUB SWAP1 SWAP2 AND SWAP1 PUSH1 0x44 ADD PUSH1 0x40 DUP1 MLOAD PUSH1 0x1F NOT DUP2 DUP5 SUB ADD DUP2 MSTORE SWAP2 DUP2 MSTORE PUSH1 0x20 DUP3 ADD DUP1 MLOAD PUSH1 0x1 PUSH1 0x1 PUSH1 0xE0 SHL SUB AND PUSH4 0x2E1A7D4D PUSH1 0xE0 SHL OR SWAP1 MSTORE MLOAD PUSH2 0x13C2 SWAP2 SWAP1 PUSH2 0x1458 JUMP JUMPDEST PUSH1 0x0 PUSH1 0x40 MLOAD DUP1 DUP4 SUB DUP2 PUSH1 0x0 DUP7 GAS CALL SWAP2 POP POP RETURNDATASIZE DUP1 PUSH1 0x0 DUP2 EQ PUSH2 0x13FF JUMPI PUSH1 0x40 MLOAD SWAP2 POP PUSH1 0x1F NOT PUSH1 0x3F RETURNDATASIZE ADD AND DUP3 ADD PUSH1 0x40 MSTORE RETURNDATASIZE DUP3 MSTORE RETURNDATASIZE PUSH1 0x0 PUSH1 0x20 DUP5 ADD RETURNDATACOPY PUSH2 0x1404 JUMP JUMPDEST PUSH1 0x60 SWAP2 POP JUMPDEST POP POP SWAP1 POP DUP1 ISZERO PUSH2 0x40D JUMPI PUSH8 0x30D98D59A9600000 PUSH1 0x1 PUSH1 0x0 DUP3 DUP3 SLOAD PUSH2 0xF1A SWAP2 SWAP1 PUSH2 0x1481 JUMP JUMPDEST PUSH1 0x0 DUP2 MLOAD PUSH1 0x0 JUMPDEST DUP2 DUP2 LT ISZERO PUSH2 0x1449 JUMPI PUSH1 0x20 DUP2 DUP6 ADD DUP2 ADD MLOAD DUP7 DUP4 ADD MSTORE ADD PUSH2 0x142F JUMP JUMPDEST POP PUSH1 0x0 SWAP4 ADD SWAP3 DUP4 MSTORE POP SWAP1 SWAP2 SWAP1 POP JUMP JUMPDEST PUSH1 0x0 PUSH2 0x1464 DUP3 DUP5 PUSH2 0x1428 JUMP JUMPDEST SWAP4 SWAP3 POP POP POP JUMP JUMPDEST PUSH4 0x4E487B71 PUSH1 0xE0 SHL PUSH1 0x0 MSTORE PUSH1 0x11 PUSH1 0x4 MSTORE PUSH1 0x24 PUSH1 0x0 REVERT JUMPDEST DUP1 DUP3 ADD DUP1 DUP3 GT ISZERO PUSH2 0x1494 JUMPI PUSH2 0x1494 PUSH2 0x146B JUMP JUMPDEST SWAP3 SWAP2 POP POP JUMP JUMPDEST PUSH1 0x0 PUSH1 0x1 DUP3 ADD PUSH2 0x14AC JUMPI PUSH2 0x14AC PUSH2 0x146B JUMP JUMPDEST POP PUSH1 0x1 ADD SWAP1 JUMP JUMPDEST PUSH4 0x4E487B71 PUSH1 0xE0 SHL PUSH1 0x0 MSTORE PUSH1 0x32 PUSH1 0x4 MSTORE PUSH1 0x24 PUSH1 0x0 REVERT JUMPDEST PUSH1 0x1 PUSH1 0x1 PUSH1 0xE0 SHL SUB NOT DUP4 AND DUP2 MSTORE PUSH1 0x0 PUSH2 0x14E5 PUSH1 0x4 DUP4 ADD DUP5 PUSH2 0x1428 JUMP JUMPDEST SWAP5 SWAP4 POP POP POP POP JUMP JUMPDEST DUP2 DUP2 SUB DUP2 DUP2 GT ISZERO PUSH2 0x1494 JUMPI PUSH2 0x1494 PUSH2 0x146B JUMP INVALID LOG2 PUSH5 0x6970667358 0x22 SLT KECCAK256 0xDB SWAP6 SWAP7 0xCF SSTORE 0xC4 KECCAK256 0xC1 0x5F 0x2E 0xB7 ORIGIN PUSH19 0xE72241B3083B4ACD39AE15240ADF27D960A587 PUSH5 0x736F6C6343 STOP ADDMOD SLT STOP CALLER "},"methodIdentifiers":{"arithmeticOverflow()":"69388fd5","crossContractReentrancy()":"0d278a9e","delegatecallReentrancy()":"b976f00d","executeAllExploits()":"2237381c","extractedETH()":"05eef4cd","extractedUSDC()":"1ef731cb","flashLoanPriceManipulation()":"07fb41e9","functionSelectorCollision()":"ac2a091c","liquidityPoolManipulation()":"8fa235de","mevFrontRunning()":"dc2dea24","modifierBypass()":"9fa68b67","moduloManipulation()":"f0444802","oracleArbitrage()":"ab33d62d","ownerTransferExploit()":"2c67bd96","sandwichAttack()":"e5782328","testAllFunctionSelectors()":"2e88ac1f","withdrawAll()":"853828b6"}}}}}