{
  "_format": "hh-sol-artifact-1",
  "contractName": "DelegateTracer",
  "sourceName": "contracts/DelegateTracer.sol",
  "abi": [
    {
      "stateMutability": "payable",
      "type": "fallback"
    },
    {
      "inputs": [],
      "name": "lastData",
      "outputs": [
        {
          "internalType": "bytes",
          "name": "",
          "type": "bytes"
        }
      ],
      "stateMutability": "view",
      "type": "function"
    },
    {
      "inputs": [],
      "name": "lastTarget",
      "outputs": [
        {
          "internalType": "address",
          "name": "",
          "type": "address"
        }
      ],
      "stateMutability": "view",
      "type": "function"
    }
  ],
  "bytecode": "0x608060405234801561001057600080fd5b5061032a806100206000396000f3fe6080604052600436106100285760003560e01c80626e75ec1461005557806336abbd1d14610080575b600080546001600160a01b03191633178155600190610049903690836101e5565b50600160005260206000f35b34801561006157600080fd5b5061006a6100b8565b60405161007791906102a6565b60405180910390f35b34801561008c57600080fd5b506000546100a0906001600160a01b031681565b6040516001600160a01b039091168152602001610077565b600180546100c59061015c565b80601f01602080910402602001604051908101604052809291908181526020018280546100f19061015c565b801561013e5780601f106101135761010080835404028352916020019161013e565b820191906000526020600020905b81548152906001019060200180831161012157829003601f168201915b505050505081565b634e487b7160e01b600052604160045260246000fd5b600181811c9082168061017057607f821691505b60208210810361019057634e487b7160e01b600052602260045260246000fd5b50919050565b601f8211156101e057600081815260208120601f850160051c810160208610156101bd5750805b601f850160051c820191505b818110156101dc578281556001016101c9565b5050505b505050565b67ffffffffffffffff8311156101fd576101fd610146565b6102118361020b835461015c565b83610196565b6000601f841160018114610245576000851561022d5750838201355b600019600387901b1c1916600186901b17835561029f565b600083815260209020601f19861690835b828110156102765786850135825560209485019460019092019101610256565b50868210156102935760001960f88860031b161c19848701351681555b505060018560011b0183555b5050505050565b600060208083528351808285015260005b818110156102d3578581018301518582016040015282016102b7565b506000604082860101526040601f19601f830116850101925050509291505056fea26469706673582212200106015bb498365503abf12b327f830d1690b1a25bef1d0f944ea1e174f49ee864736f6c63430008120033",
  "linkReferences": {},
  "deployedLinkReferences": {}
}