{
  "_format": "hh-sol-artifact-1",
  "contractName": "ReentrancyAttacker",
  "sourceName": "contracts/ReentrancyAttacker.sol",
  "abi": [
    {
      "inputs": [
        {
          "internalType": "address",
          "name": "_vault",
          "type": "address"
        }
      ],
      "stateMutability": "nonpayable",
      "type": "constructor"
    },
    {
      "stateMutability": "payable",
      "type": "fallback"
    },
    {
      "inputs": [],
      "name": "attack",
      "outputs": [],
      "stateMutability": "nonpayable",
      "type": "function"
    },
    {
      "inputs": [],
      "name": "attackCount",
      "outputs": [
        {
          "internalType": "uint256",
          "name": "",
          "type": "uint256"
        }
      ],
      "stateMutability": "view",
      "type": "function"
    },
    {
      "inputs": [],
      "name": "vault",
      "outputs": [
        {
          "internalType": "address",
          "name": "",
          "type": "address"
        }
      ],
      "stateMutability": "view",
      "type": "function"
    },
    {
      "stateMutability": "payable",
      "type": "receive"
    }
  ],
  "bytecode": "0x608060405234801561001057600080fd5b506040516102ef3803806102ef83398101604081905261002f91610054565b600080546001600160a01b0319166001600160a01b0392909216919091179055610084565b60006020828403121561006657600080fd5b81516001600160a01b038116811461007d57600080fd5b9392505050565b61025c806100936000396000f3fe6080604052600436106100385760003560e01c8063407c2821146100ec5780639e5faafc14610115578063fbfa77cf1461012a5761003f565b3661003f57005b600260015410156100ea576001805490600061005a836101d0565b90915550506000805460408051600481526024810182526020810180516001600160e01b0316633ccfd60b60e01b17905290516001600160a01b03909216916100a391906101f7565b6000604051808303816000865af19150503d80600081146100e0576040519150601f19603f3d011682016040523d82523d6000602084013e6100e5565b606091505b505050505b005b3480156100f857600080fd5b5061010260015481565b6040519081526020015b60405180910390f35b34801561012157600080fd5b506100ea610162565b34801561013657600080fd5b5060005461014a906001600160a01b031681565b6040516001600160a01b03909116815260200161010c565b600080546040516001600160a01b039091169082908181818181875af1925050503d80600081146101af576040519150601f19603f3d011682016040523d82523d6000602084013e6101b4565b606091505b50506001805491925060006101c8836101d0565b919050555050565b6000600182016101f057634e487b7160e01b600052601160045260246000fd5b5060010190565b6000825160005b8181101561021857602081860181015185830152016101fe565b50600092019182525091905056fea2646970667358221220377d90a70880afe6d6a47a8dc11f3a94ecb7acf4897f19368bb333d03289894564736f6c63430008120033",
  "linkReferences": {},
  "deployedLinkReferences": {}
}