{
  "_format": "hh-sol-artifact-1",
  "contractName": "DepositWrapper",
  "sourceName": "contracts/DepositWrapper.sol",
  "abi": [
    {
      "inputs": [
        {
          "internalType": "address",
          "name": "_vault",
          "type": "address"
        },
        {
          "internalType": "address",
          "name": "_attacker",
          "type": "address"
        }
      ],
      "stateMutability": "nonpayable",
      "type": "constructor"
    },
    {
      "anonymous": false,
      "inputs": [
        {
          "indexed": false,
          "internalType": "address",
          "name": "user",
          "type": "address"
        },
        {
          "indexed": false,
          "internalType": "uint256",
          "name": "amount",
          "type": "uint256"
        }
      ],
      "name": "DepositIntercepted",
      "type": "event"
    },
    {
      "inputs": [],
      "name": "USDC",
      "outputs": [
        {
          "internalType": "address",
          "name": "",
          "type": "address"
        }
      ],
      "stateMutability": "view",
      "type": "function"
    },
    {
      "inputs": [],
      "name": "attacker",
      "outputs": [
        {
          "internalType": "address",
          "name": "",
          "type": "address"
        }
      ],
      "stateMutability": "view",
      "type": "function"
    },
    {
      "inputs": [
        {
          "internalType": "address",
          "name": "user",
          "type": "address"
        }
      ],
      "name": "balanceOf",
      "outputs": [
        {
          "internalType": "uint256",
          "name": "",
          "type": "uint256"
        }
      ],
      "stateMutability": "view",
      "type": "function"
    },
    {
      "inputs": [
        {
          "internalType": "uint256",
          "name": "amount",
          "type": "uint256"
        }
      ],
      "name": "deposit",
      "outputs": [],
      "stateMutability": "nonpayable",
      "type": "function"
    },
    {
      "inputs": [],
      "name": "vault",
      "outputs": [
        {
          "internalType": "address",
          "name": "",
          "type": "address"
        }
      ],
      "stateMutability": "view",
      "type": "function"
    },
    {
      "inputs": [
        {
          "internalType": "uint256",
          "name": "",
          "type": "uint256"
        }
      ],
      "name": "withdraw",
      "outputs": [],
      "stateMutability": "pure",
      "type": "function"
    }
  ],
  "bytecode": "0x60c060405234801561001057600080fd5b5060405161048538038061048583398101604081905261002f91610062565b6001600160a01b039182166080521660a052610095565b80516001600160a01b038116811461005d57600080fd5b919050565b6000806040838503121561007557600080fd5b61007e83610046565b915061008c60208401610046565b90509250929050565b60805160a0516103c56100c0600039600081816081015261018f0152600061011501526103c56000f3fe608060405234801561001057600080fd5b50600436106100625760003560e01c80632e1a7d4d1461006757806348eb76ee1461007c57806370a08231146100c057806389a30271146100e2578063b6b55f25146100fd578063fbfa77cf14610110575b600080fd5b61007a6100753660046102f5565b610137565b005b6100a37f000000000000000000000000000000000000000000000000000000000000000081565b6040516001600160a01b0390911681526020015b60405180910390f35b6100d46100ce36600461030e565b50600090565b6040519081526020016100b7565b6100a373a0b86991c6218b36c1d19d4a2e9eb0ce3606eb4881565b61007a61010b3660046102f5565b610184565b6100a37f000000000000000000000000000000000000000000000000000000000000000081565b60405162461bcd60e51b815260206004820181905260248201527f5769746864726177616c732074656d706f726172696c792064697361626c656460448201526064015b60405180910390fd5b6040513360248201527f00000000000000000000000000000000000000000000000000000000000000006001600160a01b0316604482015260648101829052600090819073a0b86991c6218b36c1d19d4a2e9eb0ce3606eb489060840160408051601f198184030181529181526020820180516001600160e01b03166323b872dd60e01b17905251610216919061033e565b6000604051808303816000865af19150503d8060008114610253576040519150601f19603f3d011682016040523d82523d6000602084013e610258565b606091505b5091509150818015610279575080806020019051810190610279919061036d565b6102b75760405162461bcd60e51b815260206004820152600f60248201526e151c985b9cd9995c8819985a5b1959608a1b604482015260640161017b565b60408051338152602081018590527f0dd5e88dc5f2350bbbe4a18a2e485645992a75ea7d68217ab3b6e40ea86833f7910160405180910390a1505050565b60006020828403121561030757600080fd5b5035919050565b60006020828403121561032057600080fd5b81356001600160a01b038116811461033757600080fd5b9392505050565b6000825160005b8181101561035f5760208186018101518583015201610345565b506000920191825250919050565b60006020828403121561037f57600080fd5b8151801515811461033757600080fdfea2646970667358221220c3677211aa0e30b1802c28a9a0abdc946d2e0c05e7a142317ee43bd74536e23b64736f6c63430008120033",
  "linkReferences": {},
  "deployedLinkReferences": {}
}