{
  "_format": "hh-sol-artifact-1",
  "contractName": "ForceSend",
  "sourceName": "contracts/ForceSend.sol",
  "abi": [
    {
      "inputs": [],
      "stateMutability": "payable",
      "type": "constructor"
    },
    {
      "inputs": [
        {
          "internalType": "address",
          "name": "target",
          "type": "address"
        }
      ],
      "name": "go",
      "outputs": [],
      "stateMutability": "nonpayable",
      "type": "function"
    }
  ],
  "bytecode": "0x608060405260ae806100126000396000f3fe6080604052348015600f57600080fd5b506004361060285760003560e01c80633434e74914602d575b600080fd5b603c6038366004604a565b603e565b005b806001600160a01b0316ff5b600060208284031215605b57600080fd5b81356001600160a01b0381168114607157600080fd5b939250505056fea264697066735822122014272380fa02915fe27fb01f60f9b3d5598e62890564fd4e8268eb6c69429e4564736f6c63430008120033",
  "linkReferences": {},
  "deployedLinkReferences": {}
}